{
  "_format": "hh-sol-artifact-1",
  "contractName": "SimpleERC721",
  "sourceName": "contracts/ERC721Template.sol",
  "abi": [
    {
      "inputs": [
        {
          "internalType": "string",
          "name": "name",
          "type": "string"
        },
        {
          "internalType": "string",
          "name": "symbol",
          "type": "string"
        }
      ],
      "stateMutability": "nonpayable",
      "type": "constructor"
    },
    {
      "inputs": [
        {
          "internalType": "address",
          "name": "sender",
          "type": "address"
        },
        {
          "internalType": "uint256",
          "name": "tokenId",
          "type": "uint256"
        },
        {
          "internalType": "address",
          "name": "owner",
          "type": "address"
        }
      ],
      "name": "ERC721IncorrectOwner",
      "type": "error"
    },
    {
      "inputs": [
        {
          "internalType": "address",
          "name": "operator",
          "type": "address"
        },
        {
          "internalType": "uint256",
          "name": "tokenId",
          "type": "uint256"
        }
      ],
      "name": "ERC721InsufficientApproval",
      "type": "error"
    },
    {
      "inputs": [
        {
          "internalType": "address",
          "name": "approver",
          "type": "address"
        }
      ],
      "name": "ERC721InvalidApprover",
      "type": "error"
    },
    {
      "inputs": [
        {
          "internalType": "address",
          "name": "operator",
          "type": "address"
        }
      ],
      "name": "ERC721InvalidOperator",
      "type": "error"
    },
    {
      "inputs": [
        {
          "internalType": "address",
          "name": "owner",
          "type": "address"
        }
      ],
      "name": "ERC721InvalidOwner",
      "type": "error"
    },
    {
      "inputs": [
        {
          "internalType": "address",
          "name": "receiver",
          "type": "address"
        }
      ],
      "name": "ERC721InvalidReceiver",
      "type": "error"
    },
    {
      "inputs": [
        {
          "internalType": "address",
          "name": "sender",
          "type": "address"
        }
      ],
      "name": "ERC721InvalidSender",
      "type": "error"
    },
    {
      "inputs": [
        {
          "internalType": "uint256",
          "name": "tokenId",
          "type": "uint256"
        }
      ],
      "name": "ERC721NonexistentToken",
      "type": "error"
    },
    {
      "inputs": [
        {
          "internalType": "address",
          "name": "owner",
          "type": "address"
        }
      ],
      "name": "OwnableInvalidOwner",
      "type": "error"
    },
    {
      "inputs": [
        {
          "internalType": "address",
          "name": "account",
          "type": "address"
        }
      ],
      "name": "OwnableUnauthorizedAccount",
      "type": "error"
    },
    {
      "anonymous": false,
      "inputs": [
        {
          "indexed": true,
          "internalType": "address",
          "name": "owner",
          "type": "address"
        },
        {
          "indexed": true,
          "internalType": "address",
          "name": "approved",
          "type": "address"
        },
        {
          "indexed": true,
          "internalType": "uint256",
          "name": "tokenId",
          "type": "uint256"
        }
      ],
      "name": "Approval",
      "type": "event"
    },
    {
      "anonymous": false,
      "inputs": [
        {
          "indexed": true,
          "internalType": "address",
          "name": "owner",
          "type": "address"
        },
        {
          "indexed": true,
          "internalType": "address",
          "name": "operator",
          "type": "address"
        },
        {
          "indexed": false,
          "internalType": "bool",
          "name": "approved",
          "type": "bool"
        }
      ],
      "name": "ApprovalForAll",
      "type": "event"
    },
    {
      "anonymous": false,
      "inputs": [
        {
          "indexed": true,
          "internalType": "address",
          "name": "previousOwner",
          "type": "address"
        },
        {
          "indexed": true,
          "internalType": "address",
          "name": "newOwner",
          "type": "address"
        }
      ],
      "name": "OwnershipTransferred",
      "type": "event"
    },
    {
      "anonymous": false,
      "inputs": [
        {
          "indexed": true,
          "internalType": "address",
          "name": "from",
          "type": "address"
        },
        {
          "indexed": true,
          "internalType": "address",
          "name": "to",
          "type": "address"
        },
        {
          "indexed": true,
          "internalType": "uint256",
          "name": "tokenId",
          "type": "uint256"
        }
      ],
      "name": "Transfer",
      "type": "event"
    },
    {
      "inputs": [
        {
          "internalType": "address",
          "name": "to",
          "type": "address"
        },
        {
          "internalType": "uint256",
          "name": "tokenId",
          "type": "uint256"
        }
      ],
      "name": "approve",
      "outputs": [],
      "stateMutability": "nonpayable",
      "type": "function"
    },
    {
      "inputs": [
        {
          "internalType": "address",
          "name": "owner",
          "type": "address"
        }
      ],
      "name": "balanceOf",
      "outputs": [
        {
          "internalType": "uint256",
          "name": "",
          "type": "uint256"
        }
      ],
      "stateMutability": "view",
      "type": "function"
    },
    {
      "inputs": [
        {
          "internalType": "uint256",
          "name": "tokenId",
          "type": "uint256"
        }
      ],
      "name": "getApproved",
      "outputs": [
        {
          "internalType": "address",
          "name": "",
          "type": "address"
        }
      ],
      "stateMutability": "view",
      "type": "function"
    },
    {
      "inputs": [
        {
          "internalType": "address",
          "name": "owner",
          "type": "address"
        },
        {
          "internalType": "address",
          "name": "operator",
          "type": "address"
        }
      ],
      "name": "isApprovedForAll",
      "outputs": [
        {
          "internalType": "bool",
          "name": "",
          "type": "bool"
        }
      ],
      "stateMutability": "view",
      "type": "function"
    },
    {
      "inputs": [],
      "name": "mint",
      "outputs": [
        {
          "internalType": "uint256",
          "name": "",
          "type": "uint256"
        }
      ],
      "stateMutability": "nonpayable",
      "type": "function"
    },
    {
      "inputs": [],
      "name": "name",
      "outputs": [
        {
          "internalType": "string",
          "name": "",
          "type": "string"
        }
      ],
      "stateMutability": "view",
      "type": "function"
    },
    {
      "inputs": [],
      "name": "owner",
      "outputs": [
        {
          "internalType": "address",
          "name": "",
          "type": "address"
        }
      ],
      "stateMutability": "view",
      "type": "function"
    },
    {
      "inputs": [
        {
          "internalType": "uint256",
          "name": "tokenId",
          "type": "uint256"
        }
      ],
      "name": "ownerOf",
      "outputs": [
        {
          "internalType": "address",
          "name": "",
          "type": "address"
        }
      ],
      "stateMutability": "view",
      "type": "function"
    },
    {
      "inputs": [],
      "name": "renounceOwnership",
      "outputs": [],
      "stateMutability": "nonpayable",
      "type": "function"
    },
    {
      "inputs": [
        {
          "internalType": "address",
          "name": "from",
          "type": "address"
        },
        {
          "internalType": "address",
          "name": "to",
          "type": "address"
        },
        {
          "internalType": "uint256",
          "name": "tokenId",
          "type": "uint256"
        }
      ],
      "name": "safeTransferFrom",
      "outputs": [],
      "stateMutability": "nonpayable",
      "type": "function"
    },
    {
      "inputs": [
        {
          "internalType": "address",
          "name": "from",
          "type": "address"
        },
        {
          "internalType": "address",
          "name": "to",
          "type": "address"
        },
        {
          "internalType": "uint256",
          "name": "tokenId",
          "type": "uint256"
        },
        {
          "internalType": "bytes",
          "name": "data",
          "type": "bytes"
        }
      ],
      "name": "safeTransferFrom",
      "outputs": [],
      "stateMutability": "nonpayable",
      "type": "function"
    },
    {
      "inputs": [
        {
          "internalType": "address",
          "name": "operator",
          "type": "address"
        },
        {
          "internalType": "bool",
          "name": "approved",
          "type": "bool"
        }
      ],
      "name": "setApprovalForAll",
      "outputs": [],
      "stateMutability": "nonpayable",
      "type": "function"
    },
    {
      "inputs": [
        {
          "internalType": "bytes4",
          "name": "interfaceId",
          "type": "bytes4"
        }
      ],
      "name": "supportsInterface",
      "outputs": [
        {
          "internalType": "bool",
          "name": "",
          "type": "bool"
        }
      ],
      "stateMutability": "view",
      "type": "function"
    },
    {
      "inputs": [],
      "name": "symbol",
      "outputs": [
        {
          "internalType": "string",
          "name": "",
          "type": "string"
        }
      ],
      "stateMutability": "view",
      "type": "function"
    },
    {
      "inputs": [
        {
          "internalType": "uint256",
          "name": "tokenId",
          "type": "uint256"
        }
      ],
      "name": "tokenURI",
      "outputs": [
        {
          "internalType": "string",
          "name": "",
          "type": "string"
        }
      ],
      "stateMutability": "view",
      "type": "function"
    },
    {
      "inputs": [],
      "name": "totalSupply",
      "outputs": [
        {
          "internalType": "uint256",
          "name": "",
          "type": "uint256"
        }
      ],
      "stateMutability": "view",
      "type": "function"
    },
    {
      "inputs": [
        {
          "internalType": "address",
          "name": "from",
          "type": "address"
        },
        {
          "internalType": "address",
          "name": "to",
          "type": "address"
        },
        {
          "internalType": "uint256",
          "name": "tokenId",
          "type": "uint256"
        }
      ],
      "name": "transferFrom",
      "outputs": [],
      "stateMutability": "nonpayable",
      "type": "function"
    },
    {
      "inputs": [
        {
          "internalType": "address",
          "name": "newOwner",
          "type": "address"
        }
      ],
      "name": "transferOwnership",
      "outputs": [],
      "stateMutability": "nonpayable",
      "type": "function"
    }
  ],
  "bytecode": "0x60806040523480156200001157600080fd5b506040516200132d3803806200132d8339810160408190526200003491620001b1565b3382826000620000458382620002aa565b506001620000548282620002aa565b5050506001600160a01b0381166200008657604051631e4fbdf760e01b81526000600482015260240160405180910390fd5b62000091816200009a565b50505062000376565b600680546001600160a01b038381166001600160a01b0319831681179093556040519116919082907f8be0079c531659141344cd1fd0a4f28419497f9722a3daafe3b4186f6b6457e090600090a35050565b634e487b7160e01b600052604160045260246000fd5b600082601f8301126200011457600080fd5b81516001600160401b0380821115620001315762000131620000ec565b604051601f8301601f19908116603f011681019082821181831017156200015c576200015c620000ec565b816040528381526020925086838588010111156200017957600080fd5b600091505b838210156200019d57858201830151818301840152908201906200017e565b600093810190920192909252949350505050565b60008060408385031215620001c557600080fd5b82516001600160401b0380821115620001dd57600080fd5b620001eb8683870162000102565b935060208501519150808211156200020257600080fd5b50620002118582860162000102565b9150509250929050565b600181811c908216806200023057607f821691505b6020821081036200025157634e487b7160e01b600052602260045260246000fd5b50919050565b601f821115620002a557600081815260208120601f850160051c81016020861015620002805750805b601f850160051c820191505b81811015620002a1578281556001016200028c565b5050505b505050565b81516001600160401b03811115620002c657620002c6620000ec565b620002de81620002d784546200021b565b8462000257565b602080601f831160018114620003165760008415620002fd5750858301515b600019600386901b1c1916600185901b178555620002a1565b600085815260208120601f198616915b82811015620003475788860151825594840194600190910190840162000326565b5085821015620003665787850151600019600388901b60f8161c191681555b5050505050600190811b01905550565b610fa780620003866000396000f3fe608060405234801561001057600080fd5b50600436106101165760003560e01c806370a08231116100a2578063a22cb46511610071578063a22cb46514610223578063b88d4fde14610236578063c87b56dd14610249578063e985e9c51461025c578063f2fde38b1461026f57600080fd5b806370a08231146101ef578063715018a6146102025780638da5cb5b1461020a57806395d89b411461021b57600080fd5b80631249c58b116100e95780631249c58b1461019857806318160ddd146101ae57806323b872dd146101b657806342842e0e146101c95780636352211e146101dc57600080fd5b806301ffc9a71461011b57806306fdde0314610143578063081812fc14610158578063095ea7b314610183575b600080fd5b61012e610129366004610baa565b610282565b60405190151581526020015b60405180910390f35b61014b6102d4565b60405161013a9190610c14565b61016b610166366004610c27565b610366565b6040516001600160a01b03909116815260200161013a565b610196610191366004610c57565b61038f565b005b6101a061039e565b60405190815260200161013a565b6007546101a0565b6101966101c4366004610c81565b6103c5565b6101966101d7366004610c81565b610455565b61016b6101ea366004610c27565b610475565b6101a06101fd366004610cbd565b610480565b6101966104c8565b6006546001600160a01b031661016b565b61014b6104dc565b610196610231366004610cd8565b6104eb565b610196610244366004610d2a565b6104f6565b61014b610257366004610c27565b61050e565b61012e61026a366004610e06565b610539565b61019661027d366004610cbd565b610567565b60006001600160e01b031982166380ac58cd60e01b14806102b357506001600160e01b03198216635b5e139f60e01b145b806102ce57506301ffc9a760e01b6001600160e01b03198316145b92915050565b6060600080546102e390610e39565b80601f016020809104026020016040519081016040528092919081815260200182805461030f90610e39565b801561035c5780601f106103315761010080835404028352916020019161035c565b820191906000526020600020905b81548152906001019060200180831161033f57829003601f168201915b5050505050905090565b6000610371826105a5565b506000828152600460205260409020546001600160a01b03166102ce565b61039a8282336105de565b5050565b600780546000918190836103b183610e73565b91905055506103c033826105eb565b919050565b6001600160a01b0382166103f457604051633250574960e11b8152600060048201526024015b60405180910390fd5b6000610401838333610605565b9050836001600160a01b0316816001600160a01b03161461044f576040516364283d7b60e01b81526001600160a01b03808616600483015260248201849052821660448201526064016103eb565b50505050565b610470838383604051806020016040528060008152506104f6565b505050565b60006102ce826105a5565b60006001600160a01b0382166104ac576040516322718ad960e21b8152600060048201526024016103eb565b506001600160a01b031660009081526003602052604090205490565b6104d06106fe565b6104da600061072b565b565b6060600180546102e390610e39565b61039a33838361077d565b6105018484846103c5565b61044f338585858561081c565b6060610519826105a5565b506040518060a00160405280607d8152602001610ef5607d913992915050565b6001600160a01b03918216600090815260056020908152604080832093909416825291909152205460ff1690565b61056f6106fe565b6001600160a01b03811661059957604051631e4fbdf760e01b8152600060048201526024016103eb565b6105a28161072b565b50565b6000818152600260205260408120546001600160a01b0316806102ce57604051637e27328960e01b8152600481018490526024016103eb565b6104708383836001610947565b61039a828260405180602001604052806000815250610a4d565b6000828152600260205260408120546001600160a01b039081169083161561063257610632818486610a65565b6001600160a01b038116156106705761064f600085600080610947565b6001600160a01b038116600090815260036020526040902080546000190190555b6001600160a01b0385161561069f576001600160a01b0385166000908152600360205260409020805460010190555b60008481526002602052604080822080546001600160a01b0319166001600160a01b0389811691821790925591518793918516917fddf252ad1be2c89b69c2b068fc378daa952ba7f163c4a11628f55a4df523b3ef91a4949350505050565b6006546001600160a01b031633146104da5760405163118cdaa760e01b81523360048201526024016103eb565b600680546001600160a01b038381166001600160a01b0319831681179093556040519116919082907f8be0079c531659141344cd1fd0a4f28419497f9722a3daafe3b4186f6b6457e090600090a35050565b6001600160a01b0382166107af57604051630b61174360e31b81526001600160a01b03831660048201526024016103eb565b6001600160a01b03838116600081815260056020908152604080832094871680845294825291829020805460ff191686151590811790915591519182527f17307eab39ab6107e8899845ad3d59bd9653f200f220920489ca2b5937696c31910160405180910390a3505050565b6001600160a01b0383163b1561094057604051630a85bd0160e11b81526001600160a01b0384169063150b7a029061085e908890889087908790600401610e9a565b6020604051808303816000875af1925050508015610899575060408051601f3d908101601f1916820190925261089691810190610ed7565b60015b610902573d8080156108c7576040519150601f19603f3d011682016040523d82523d6000602084013e6108cc565b606091505b5080516000036108fa57604051633250574960e11b81526001600160a01b03851660048201526024016103eb565b805160208201fd5b6001600160e01b03198116630a85bd0160e11b1461093e57604051633250574960e11b81526001600160a01b03851660048201526024016103eb565b505b5050505050565b808061095b57506001600160a01b03821615155b15610a1d57600061096b846105a5565b90506001600160a01b038316158015906109975750826001600160a01b0316816001600160a01b031614155b80156109aa57506109a88184610539565b155b156109d35760405163a9fbf51f60e01b81526001600160a01b03841660048201526024016103eb565b8115610a1b5783856001600160a01b0316826001600160a01b03167f8c5be1e5ebec7d5bd14f71427d1e84f3dd0314c0f7b2291e5b200ac8c7c3b92560405160405180910390a45b505b5050600090815260046020526040902080546001600160a01b0319166001600160a01b0392909216919091179055565b610a578383610ac9565b61047033600085858561081c565b610a70838383610b2e565b610470576001600160a01b038316610a9e57604051637e27328960e01b8152600481018290526024016103eb565b60405163177e802f60e01b81526001600160a01b0383166004820152602481018290526044016103eb565b6001600160a01b038216610af357604051633250574960e11b8152600060048201526024016103eb565b6000610b0183836000610605565b90506001600160a01b03811615610470576040516339e3563760e11b8152600060048201526024016103eb565b60006001600160a01b03831615801590610b8c5750826001600160a01b0316846001600160a01b03161480610b685750610b688484610539565b80610b8c57506000828152600460205260409020546001600160a01b038481169116145b949350505050565b6001600160e01b0319811681146105a257600080fd5b600060208284031215610bbc57600080fd5b8135610bc781610b94565b9392505050565b6000815180845260005b81811015610bf457602081850181015186830182015201610bd8565b506000602082860101526020601f19601f83011685010191505092915050565b602081526000610bc76020830184610bce565b600060208284031215610c3957600080fd5b5035919050565b80356001600160a01b03811681146103c057600080fd5b60008060408385031215610c6a57600080fd5b610c7383610c40565b946020939093013593505050565b600080600060608486031215610c9657600080fd5b610c9f84610c40565b9250610cad60208501610c40565b9150604084013590509250925092565b600060208284031215610ccf57600080fd5b610bc782610c40565b60008060408385031215610ceb57600080fd5b610cf483610c40565b915060208301358015158114610d0957600080fd5b809150509250929050565b634e487b7160e01b600052604160045260246000fd5b60008060008060808587031215610d4057600080fd5b610d4985610c40565b9350610d5760208601610c40565b925060408501359150606085013567ffffffffffffffff80821115610d7b57600080fd5b818701915087601f830112610d8f57600080fd5b813581811115610da157610da1610d14565b604051601f8201601f19908116603f01168101908382118183101715610dc957610dc9610d14565b816040528281528a6020848701011115610de257600080fd5b82602086016020830137600060208483010152809550505050505092959194509250565b60008060408385031215610e1957600080fd5b610e2283610c40565b9150610e3060208401610c40565b90509250929050565b600181811c90821680610e4d57607f821691505b602082108103610e6d57634e487b7160e01b600052602260045260246000fd5b50919050565b600060018201610e9357634e487b7160e01b600052601160045260246000fd5b5060010190565b6001600160a01b0385811682528416602082015260408101839052608060608201819052600090610ecd90830184610bce565b9695505050505050565b600060208284031215610ee957600080fd5b8151610bc781610b9456fe68747470733a2f2f656d6572616c642d73706f7474792d626f61722d3736312e6d7970696e6174612e636c6f75642f697066732f626166796265696335777573646c6d6e6479636a3676626a6967766c6533716b646d627762697178746d6e33336d3336336472366e6435347132692f6d657461646174612e6a736f6ea26469706673582212203ed37c481b4f6ec39433f1cf9d12920a02332d5a97e4a16a1eef994b89623abe64736f6c63430008140033",
  "linkReferences": {},
  "deployedLinkReferences": {}
}