{
  "_format": "hh-sol-artifact-1",
  "contractName": "AdvancedERC20",
  "sourceName": "contracts/AdvancedERC20.sol",
  "abi": [
    {
      "inputs": [
        {
          "internalType": "string",
          "name": "name",
          "type": "string"
        },
        {
          "internalType": "string",
          "name": "symbol",
          "type": "string"
        },
        {
          "internalType": "uint256",
          "name": "initialSupply",
          "type": "uint256"
        },
        {
          "internalType": "address",
          "name": "admin",
          "type": "address"
        },
        {
          "internalType": "bool",
          "name": "_mintingEnabled",
          "type": "bool"
        },
        {
          "internalType": "bool",
          "name": "_pausingEnabled",
          "type": "bool"
        },
        {
          "internalType": "uint256",
          "name": "_maxSupply",
          "type": "uint256"
        }
      ],
      "stateMutability": "nonpayable",
      "type": "constructor"
    },
    {
      "inputs": [],
      "name": "AccessControlBadConfirmation",
      "type": "error"
    },
    {
      "inputs": [
        {
          "internalType": "address",
          "name": "account",
          "type": "address"
        },
        {
          "internalType": "bytes32",
          "name": "neededRole",
          "type": "bytes32"
        }
      ],
      "name": "AccessControlUnauthorizedAccount",
      "type": "error"
    },
    {
      "inputs": [
        {
          "internalType": "address",
          "name": "spender",
          "type": "address"
        },
        {
          "internalType": "uint256",
          "name": "allowance",
          "type": "uint256"
        },
        {
          "internalType": "uint256",
          "name": "needed",
          "type": "uint256"
        }
      ],
      "name": "ERC20InsufficientAllowance",
      "type": "error"
    },
    {
      "inputs": [
        {
          "internalType": "address",
          "name": "sender",
          "type": "address"
        },
        {
          "internalType": "uint256",
          "name": "balance",
          "type": "uint256"
        },
        {
          "internalType": "uint256",
          "name": "needed",
          "type": "uint256"
        }
      ],
      "name": "ERC20InsufficientBalance",
      "type": "error"
    },
    {
      "inputs": [
        {
          "internalType": "address",
          "name": "approver",
          "type": "address"
        }
      ],
      "name": "ERC20InvalidApprover",
      "type": "error"
    },
    {
      "inputs": [
        {
          "internalType": "address",
          "name": "receiver",
          "type": "address"
        }
      ],
      "name": "ERC20InvalidReceiver",
      "type": "error"
    },
    {
      "inputs": [
        {
          "internalType": "address",
          "name": "sender",
          "type": "address"
        }
      ],
      "name": "ERC20InvalidSender",
      "type": "error"
    },
    {
      "inputs": [
        {
          "internalType": "address",
          "name": "spender",
          "type": "address"
        }
      ],
      "name": "ERC20InvalidSpender",
      "type": "error"
    },
    {
      "inputs": [],
      "name": "EnforcedPause",
      "type": "error"
    },
    {
      "inputs": [],
      "name": "ExpectedPause",
      "type": "error"
    },
    {
      "inputs": [],
      "name": "MaxSupplyExceeded",
      "type": "error"
    },
    {
      "inputs": [],
      "name": "MintingDisabled",
      "type": "error"
    },
    {
      "inputs": [],
      "name": "PausingDisabled",
      "type": "error"
    },
    {
      "anonymous": false,
      "inputs": [
        {
          "indexed": true,
          "internalType": "address",
          "name": "owner",
          "type": "address"
        },
        {
          "indexed": true,
          "internalType": "address",
          "name": "spender",
          "type": "address"
        },
        {
          "indexed": false,
          "internalType": "uint256",
          "name": "value",
          "type": "uint256"
        }
      ],
      "name": "Approval",
      "type": "event"
    },
    {
      "anonymous": false,
      "inputs": [
        {
          "indexed": false,
          "internalType": "address",
          "name": "account",
          "type": "address"
        }
      ],
      "name": "Paused",
      "type": "event"
    },
    {
      "anonymous": false,
      "inputs": [
        {
          "indexed": true,
          "internalType": "bytes32",
          "name": "role",
          "type": "bytes32"
        },
        {
          "indexed": true,
          "internalType": "bytes32",
          "name": "previousAdminRole",
          "type": "bytes32"
        },
        {
          "indexed": true,
          "internalType": "bytes32",
          "name": "newAdminRole",
          "type": "bytes32"
        }
      ],
      "name": "RoleAdminChanged",
      "type": "event"
    },
    {
      "anonymous": false,
      "inputs": [
        {
          "indexed": true,
          "internalType": "bytes32",
          "name": "role",
          "type": "bytes32"
        },
        {
          "indexed": true,
          "internalType": "address",
          "name": "account",
          "type": "address"
        },
        {
          "indexed": true,
          "internalType": "address",
          "name": "sender",
          "type": "address"
        }
      ],
      "name": "RoleGranted",
      "type": "event"
    },
    {
      "anonymous": false,
      "inputs": [
        {
          "indexed": true,
          "internalType": "bytes32",
          "name": "role",
          "type": "bytes32"
        },
        {
          "indexed": true,
          "internalType": "address",
          "name": "account",
          "type": "address"
        },
        {
          "indexed": true,
          "internalType": "address",
          "name": "sender",
          "type": "address"
        }
      ],
      "name": "RoleRevoked",
      "type": "event"
    },
    {
      "anonymous": false,
      "inputs": [
        {
          "indexed": true,
          "internalType": "address",
          "name": "from",
          "type": "address"
        },
        {
          "indexed": true,
          "internalType": "address",
          "name": "to",
          "type": "address"
        },
        {
          "indexed": false,
          "internalType": "uint256",
          "name": "value",
          "type": "uint256"
        }
      ],
      "name": "Transfer",
      "type": "event"
    },
    {
      "anonymous": false,
      "inputs": [
        {
          "indexed": false,
          "internalType": "address",
          "name": "account",
          "type": "address"
        }
      ],
      "name": "Unpaused",
      "type": "event"
    },
    {
      "inputs": [],
      "name": "DEFAULT_ADMIN_ROLE",
      "outputs": [
        {
          "internalType": "bytes32",
          "name": "",
          "type": "bytes32"
        }
      ],
      "stateMutability": "view",
      "type": "function"
    },
    {
      "inputs": [],
      "name": "MINTER_ROLE",
      "outputs": [
        {
          "internalType": "bytes32",
          "name": "",
          "type": "bytes32"
        }
      ],
      "stateMutability": "view",
      "type": "function"
    },
    {
      "inputs": [],
      "name": "PAUSER_ROLE",
      "outputs": [
        {
          "internalType": "bytes32",
          "name": "",
          "type": "bytes32"
        }
      ],
      "stateMutability": "view",
      "type": "function"
    },
    {
      "inputs": [
        {
          "internalType": "address",
          "name": "owner",
          "type": "address"
        },
        {
          "internalType": "address",
          "name": "spender",
          "type": "address"
        }
      ],
      "name": "allowance",
      "outputs": [
        {
          "internalType": "uint256",
          "name": "",
          "type": "uint256"
        }
      ],
      "stateMutability": "view",
      "type": "function"
    },
    {
      "inputs": [
        {
          "internalType": "address",
          "name": "spender",
          "type": "address"
        },
        {
          "internalType": "uint256",
          "name": "value",
          "type": "uint256"
        }
      ],
      "name": "approve",
      "outputs": [
        {
          "internalType": "bool",
          "name": "",
          "type": "bool"
        }
      ],
      "stateMutability": "nonpayable",
      "type": "function"
    },
    {
      "inputs": [
        {
          "internalType": "address",
          "name": "account",
          "type": "address"
        }
      ],
      "name": "balanceOf",
      "outputs": [
        {
          "internalType": "uint256",
          "name": "",
          "type": "uint256"
        }
      ],
      "stateMutability": "view",
      "type": "function"
    },
    {
      "inputs": [
        {
          "internalType": "uint256",
          "name": "value",
          "type": "uint256"
        }
      ],
      "name": "burn",
      "outputs": [],
      "stateMutability": "nonpayable",
      "type": "function"
    },
    {
      "inputs": [
        {
          "internalType": "address",
          "name": "account",
          "type": "address"
        },
        {
          "internalType": "uint256",
          "name": "value",
          "type": "uint256"
        }
      ],
      "name": "burnFrom",
      "outputs": [],
      "stateMutability": "nonpayable",
      "type": "function"
    },
    {
      "inputs": [],
      "name": "decimals",
      "outputs": [
        {
          "internalType": "uint8",
          "name": "",
          "type": "uint8"
        }
      ],
      "stateMutability": "view",
      "type": "function"
    },
    {
      "inputs": [
        {
          "internalType": "bytes32",
          "name": "role",
          "type": "bytes32"
        }
      ],
      "name": "getRoleAdmin",
      "outputs": [
        {
          "internalType": "bytes32",
          "name": "",
          "type": "bytes32"
        }
      ],
      "stateMutability": "view",
      "type": "function"
    },
    {
      "inputs": [
        {
          "internalType": "bytes32",
          "name": "role",
          "type": "bytes32"
        },
        {
          "internalType": "address",
          "name": "account",
          "type": "address"
        }
      ],
      "name": "grantRole",
      "outputs": [],
      "stateMutability": "nonpayable",
      "type": "function"
    },
    {
      "inputs": [
        {
          "internalType": "bytes32",
          "name": "role",
          "type": "bytes32"
        },
        {
          "internalType": "address",
          "name": "account",
          "type": "address"
        }
      ],
      "name": "hasRole",
      "outputs": [
        {
          "internalType": "bool",
          "name": "",
          "type": "bool"
        }
      ],
      "stateMutability": "view",
      "type": "function"
    },
    {
      "inputs": [],
      "name": "maxSupply",
      "outputs": [
        {
          "internalType": "uint256",
          "name": "",
          "type": "uint256"
        }
      ],
      "stateMutability": "view",
      "type": "function"
    },
    {
      "inputs": [
        {
          "internalType": "address",
          "name": "to",
          "type": "address"
        },
        {
          "internalType": "uint256",
          "name": "amount",
          "type": "uint256"
        }
      ],
      "name": "mint",
      "outputs": [],
      "stateMutability": "nonpayable",
      "type": "function"
    },
    {
      "inputs": [],
      "name": "mintingEnabled",
      "outputs": [
        {
          "internalType": "bool",
          "name": "",
          "type": "bool"
        }
      ],
      "stateMutability": "view",
      "type": "function"
    },
    {
      "inputs": [],
      "name": "name",
      "outputs": [
        {
          "internalType": "string",
          "name": "",
          "type": "string"
        }
      ],
      "stateMutability": "view",
      "type": "function"
    },
    {
      "inputs": [],
      "name": "pause",
      "outputs": [],
      "stateMutability": "nonpayable",
      "type": "function"
    },
    {
      "inputs": [],
      "name": "paused",
      "outputs": [
        {
          "internalType": "bool",
          "name": "",
          "type": "bool"
        }
      ],
      "stateMutability": "view",
      "type": "function"
    },
    {
      "inputs": [],
      "name": "pausingEnabled",
      "outputs": [
        {
          "internalType": "bool",
          "name": "",
          "type": "bool"
        }
      ],
      "stateMutability": "view",
      "type": "function"
    },
    {
      "inputs": [
        {
          "internalType": "bytes32",
          "name": "role",
          "type": "bytes32"
        },
        {
          "internalType": "address",
          "name": "callerConfirmation",
          "type": "address"
        }
      ],
      "name": "renounceRole",
      "outputs": [],
      "stateMutability": "nonpayable",
      "type": "function"
    },
    {
      "inputs": [
        {
          "internalType": "bytes32",
          "name": "role",
          "type": "bytes32"
        },
        {
          "internalType": "address",
          "name": "account",
          "type": "address"
        }
      ],
      "name": "revokeRole",
      "outputs": [],
      "stateMutability": "nonpayable",
      "type": "function"
    },
    {
      "inputs": [
        {
          "internalType": "bytes4",
          "name": "interfaceId",
          "type": "bytes4"
        }
      ],
      "name": "supportsInterface",
      "outputs": [
        {
          "internalType": "bool",
          "name": "",
          "type": "bool"
        }
      ],
      "stateMutability": "view",
      "type": "function"
    },
    {
      "inputs": [],
      "name": "symbol",
      "outputs": [
        {
          "internalType": "string",
          "name": "",
          "type": "string"
        }
      ],
      "stateMutability": "view",
      "type": "function"
    },
    {
      "inputs": [],
      "name": "totalSupply",
      "outputs": [
        {
          "internalType": "uint256",
          "name": "",
          "type": "uint256"
        }
      ],
      "stateMutability": "view",
      "type": "function"
    },
    {
      "inputs": [
        {
          "internalType": "address",
          "name": "to",
          "type": "address"
        },
        {
          "internalType": "uint256",
          "name": "value",
          "type": "uint256"
        }
      ],
      "name": "transfer",
      "outputs": [
        {
          "internalType": "bool",
          "name": "",
          "type": "bool"
        }
      ],
      "stateMutability": "nonpayable",
      "type": "function"
    },
    {
      "inputs": [
        {
          "internalType": "address",
          "name": "from",
          "type": "address"
        },
        {
          "internalType": "address",
          "name": "to",
          "type": "address"
        },
        {
          "internalType": "uint256",
          "name": "value",
          "type": "uint256"
        }
      ],
      "name": "transferFrom",
      "outputs": [
        {
          "internalType": "bool",
          "name": "",
          "type": "bool"
        }
      ],
      "stateMutability": "nonpayable",
      "type": "function"
    },
    {
      "inputs": [],
      "name": "unpause",
      "outputs": [],
      "stateMutability": "nonpayable",
      "type": "function"
    }
  ],
  "bytecode": "0x60e06040523480156200001157600080fd5b50604051620016c6380380620016c6833981016040819052620000349162000481565b86866003620000448382620005d3565b506004620000538282620005d3565b50505082151560a05281151560c0526080819052620000746000856200012e565b508215620000aa57620000a87f9f2df0fed2c77648de5860a4cc508cd0818c85b8b8a1ab4ceeef8d981c8956a6856200012e565b505b8115620000df57620000dd7f65d7a28e3265b37a6474929f336521b332c1681b933f6cb9f3376673440d862a856200012e565b505b84156200012157600081118015620000f657508085115b156200011557604051638a164f6360e01b815260040160405180910390fd5b620001218486620001e1565b50505050505050620006c1565b60008281526006602090815260408083206001600160a01b038516845290915281205460ff16620001d75760008381526006602090815260408083206001600160a01b03861684529091529020805460ff191660011790556200018e3390565b6001600160a01b0316826001600160a01b0316847f2f8788117e7eff1d82e926ec794901d17c78024a50270940304540a733656f0d60405160405180910390a4506001620001db565b5060005b92915050565b6001600160a01b038216620002115760405163ec442f0560e01b8152600060048201526024015b60405180910390fd5b6200021f6000838362000223565b5050565b6200023083838362000235565b505050565b6200023f6200024c565b6200023083838362000273565b60055460ff1615620002715760405163d93c066560e01b815260040160405180910390fd5b565b6001600160a01b038316620002a25780600260008282546200029691906200069f565b90915550620003169050565b6001600160a01b03831660009081526020819052604090205481811015620002f75760405163391434e360e21b81526001600160a01b0385166004820152602481018290526044810183905260640162000208565b6001600160a01b03841660009081526020819052604090209082900390555b6001600160a01b038216620003345760028054829003905562000353565b6001600160a01b03821660009081526020819052604090208054820190555b816001600160a01b0316836001600160a01b03167fddf252ad1be2c89b69c2b068fc378daa952ba7f163c4a11628f55a4df523b3ef836040516200039991815260200190565b60405180910390a3505050565b634e487b7160e01b600052604160045260246000fd5b600082601f830112620003ce57600080fd5b81516001600160401b0380821115620003eb57620003eb620003a6565b604051601f8301601f19908116603f01168101908282118183101715620004165762000416620003a6565b816040528381526020925086838588010111156200043357600080fd5b600091505b8382101562000457578582018301518183018401529082019062000438565b600093810190920192909252949350505050565b805180151581146200047c57600080fd5b919050565b600080600080600080600060e0888a0312156200049d57600080fd5b87516001600160401b0380821115620004b557600080fd5b620004c38b838c01620003bc565b985060208a0151915080821115620004da57600080fd5b50620004e98a828b01620003bc565b60408a015160608b0151919850965090506001600160a01b03811681146200051057600080fd5b935062000520608089016200046b565b92506200053060a089016200046b565b915060c0880151905092959891949750929550565b600181811c908216806200055a57607f821691505b6020821081036200057b57634e487b7160e01b600052602260045260246000fd5b50919050565b601f8211156200023057600081815260208120601f850160051c81016020861015620005aa5750805b601f850160051c820191505b81811015620005cb57828155600101620005b6565b505050505050565b81516001600160401b03811115620005ef57620005ef620003a6565b620006078162000600845462000545565b8462000581565b602080601f8311600181146200063f5760008415620006265750858301515b600019600386901b1c1916600185901b178555620005cb565b600085815260208120601f198616915b8281101562000670578886015182559484019460019091019084016200064f565b50858210156200068f5787850151600019600388901b60f8161c191681555b5050505050600190811b01905550565b80820180821115620001db57634e487b7160e01b600052601160045260246000fd5b60805160a05160c051610fb2620007146000396000818161031a015281816105d3015261075b01526000818161034101526106460152600081816103bd0152818161068601526106af0152610fb26000f3fe608060405234801561001057600080fd5b50600436106101a95760003560e01c806370a08231116100f9578063a217fddf11610097578063d547741f11610071578063d547741f146103a5578063d5abeb01146103b8578063dd62ed3e146103df578063e63ab1e91461041857600080fd5b8063a217fddf14610363578063a9059cbb1461036b578063d53913931461037e57600080fd5b806391d14854116100d357806391d14854146102fa57806395d89b411461030d578063962c02fd146103155780639fd6db121461033c57600080fd5b806370a08231146102b657806379cc6790146102df5780638456cb59146102f257600080fd5b80632f2ff15d116101665780633f4ba83a116101405780633f4ba83a1461027d57806340c10f191461028557806342966c68146102985780635c975abb146102ab57600080fd5b80632f2ff15d14610246578063313ce5671461025b57806336568abe1461026a57600080fd5b806301ffc9a7146101ae57806306fdde03146101d6578063095ea7b3146101eb57806318160ddd146101fe57806323b872dd14610210578063248a9ca314610223575b600080fd5b6101c16101bc366004610d96565b61043f565b60405190151581526020015b60405180910390f35b6101de610476565b6040516101cd9190610dc7565b6101c16101f9366004610e31565b610508565b6002545b6040519081526020016101cd565b6101c161021e366004610e5b565b610520565b610202610231366004610e97565b60009081526006602052604090206001015490565b610259610254366004610eb0565b610544565b005b604051601281526020016101cd565b610259610278366004610eb0565b61056f565b6102596105a7565b610259610293366004610e31565b61061a565b6102596102a6366004610e97565b61070c565b60055460ff166101c1565b6102026102c4366004610edc565b6001600160a01b031660009081526020819052604090205490565b6102596102ed366004610e31565b610716565b61025961072f565b6101c1610308366004610eb0565b61079f565b6101de6107ca565b6101c17f000000000000000000000000000000000000000000000000000000000000000081565b6101c17f000000000000000000000000000000000000000000000000000000000000000081565b610202600081565b6101c1610379366004610e31565b6107d9565b6102027f9f2df0fed2c77648de5860a4cc508cd0818c85b8b8a1ab4ceeef8d981c8956a681565b6102596103b3366004610eb0565b6107e7565b6102027f000000000000000000000000000000000000000000000000000000000000000081565b6102026103ed366004610ef7565b6001600160a01b03918216600090815260016020908152604080832093909416825291909152205490565b6102027f65d7a28e3265b37a6474929f336521b332c1681b933f6cb9f3376673440d862a81565b60006001600160e01b03198216637965db0b60e01b148061047057506301ffc9a760e01b6001600160e01b03198316145b92915050565b60606003805461048590610f21565b80601f01602080910402602001604051908101604052809291908181526020018280546104b190610f21565b80156104fe5780601f106104d3576101008083540402835291602001916104fe565b820191906000526020600020905b8154815290600101906020018083116104e157829003601f168201915b5050505050905090565b60003361051681858561080c565b5060019392505050565b60003361052e858285610819565b610539858585610897565b506001949350505050565b60008281526006602052604090206001015461055f816108f6565b6105698383610900565b50505050565b6001600160a01b03811633146105985760405163334bd91960e11b815260040160405180910390fd5b6105a28282610994565b505050565b7f65d7a28e3265b37a6474929f336521b332c1681b933f6cb9f3376673440d862a6105d1816108f6565b7f000000000000000000000000000000000000000000000000000000000000000061060f57604051631135a75960e21b815260040160405180910390fd5b610617610a01565b50565b7f9f2df0fed2c77648de5860a4cc508cd0818c85b8b8a1ab4ceeef8d981c8956a6610644816108f6565b7f00000000000000000000000000000000000000000000000000000000000000006106825760405163af79b43760e01b815260040160405180910390fd5b60007f00000000000000000000000000000000000000000000000000000000000000001180156106e457507f0000000000000000000000000000000000000000000000000000000000000000826106d860025490565b6106e29190610f5b565b115b1561070257604051638a164f6360e01b815260040160405180910390fd5b6105a28383610a53565b6106173382610a89565b610721823383610819565b61072b8282610a89565b5050565b7f65d7a28e3265b37a6474929f336521b332c1681b933f6cb9f3376673440d862a610759816108f6565b7f000000000000000000000000000000000000000000000000000000000000000061079757604051631135a75960e21b815260040160405180910390fd5b610617610abf565b60009182526006602090815260408084206001600160a01b0393909316845291905290205460ff1690565b60606004805461048590610f21565b600033610516818585610897565b600082815260066020526040902060010154610802816108f6565b6105698383610994565b6105a28383836001610afc565b6001600160a01b03838116600090815260016020908152604080832093861683529290522054600019811015610569578181101561088857604051637dc7a0d960e11b81526001600160a01b038416600482015260248101829052604481018390526064015b60405180910390fd5b61056984848484036000610afc565b6001600160a01b0383166108c157604051634b637e8f60e11b81526000600482015260240161087f565b6001600160a01b0382166108eb5760405163ec442f0560e01b81526000600482015260240161087f565b6105a2838383610bd1565b6106178133610bdc565b600061090c838361079f565b61098c5760008381526006602090815260408083206001600160a01b03861684529091529020805460ff191660011790556109443390565b6001600160a01b0316826001600160a01b0316847f2f8788117e7eff1d82e926ec794901d17c78024a50270940304540a733656f0d60405160405180910390a4506001610470565b506000610470565b60006109a0838361079f565b1561098c5760008381526006602090815260408083206001600160a01b0386168085529252808320805460ff1916905551339286917ff6391f5c32d9c69d2a47ea670b442974b53935d1edc7fd64eb21e047a839171b9190a4506001610470565b610a09610c15565b6005805460ff191690557f5db9ee0a495bf2e6ff9c91a7834c1ba4fdd244a5e8aa4e537bd38aeae4b073aa335b6040516001600160a01b03909116815260200160405180910390a1565b6001600160a01b038216610a7d5760405163ec442f0560e01b81526000600482015260240161087f565b61072b60008383610bd1565b6001600160a01b038216610ab357604051634b637e8f60e11b81526000600482015260240161087f565b61072b82600083610bd1565b610ac7610c3a565b6005805460ff191660011790557f62e78cea01bee320cd4e420270b5ea74000d11b0c9f74754ebdbfc544b05a258610a363390565b6001600160a01b038416610b265760405163e602df0560e01b81526000600482015260240161087f565b6001600160a01b038316610b5057604051634a1406b160e11b81526000600482015260240161087f565b6001600160a01b038085166000908152600160209081526040808320938716835292905220829055801561056957826001600160a01b0316846001600160a01b03167f8c5be1e5ebec7d5bd14f71427d1e84f3dd0314c0f7b2291e5b200ac8c7c3b92584604051610bc391815260200190565b60405180910390a350505050565b6105a2838383610c5e565b610be6828261079f565b61072b5760405163e2517d3f60e01b81526001600160a01b03821660048201526024810183905260440161087f565b60055460ff16610c3857604051638dfc202b60e01b815260040160405180910390fd5b565b60055460ff1615610c385760405163d93c066560e01b815260040160405180910390fd5b610c66610c3a565b6105a28383836001600160a01b038316610c97578060026000828254610c8c9190610f5b565b90915550610d099050565b6001600160a01b03831660009081526020819052604090205481811015610cea5760405163391434e360e21b81526001600160a01b0385166004820152602481018290526044810183905260640161087f565b6001600160a01b03841660009081526020819052604090209082900390555b6001600160a01b038216610d2557600280548290039055610d44565b6001600160a01b03821660009081526020819052604090208054820190555b816001600160a01b0316836001600160a01b03167fddf252ad1be2c89b69c2b068fc378daa952ba7f163c4a11628f55a4df523b3ef83604051610d8991815260200190565b60405180910390a3505050565b600060208284031215610da857600080fd5b81356001600160e01b031981168114610dc057600080fd5b9392505050565b600060208083528351808285015260005b81811015610df457858101830151858201604001528201610dd8565b506000604082860101526040601f19601f8301168501019250505092915050565b80356001600160a01b0381168114610e2c57600080fd5b919050565b60008060408385031215610e4457600080fd5b610e4d83610e15565b946020939093013593505050565b600080600060608486031215610e7057600080fd5b610e7984610e15565b9250610e8760208501610e15565b9150604084013590509250925092565b600060208284031215610ea957600080fd5b5035919050565b60008060408385031215610ec357600080fd5b82359150610ed360208401610e15565b90509250929050565b600060208284031215610eee57600080fd5b610dc082610e15565b60008060408385031215610f0a57600080fd5b610f1383610e15565b9150610ed360208401610e15565b600181811c90821680610f3557607f821691505b602082108103610f5557634e487b7160e01b600052602260045260246000fd5b50919050565b8082018082111561047057634e487b7160e01b600052601160045260246000fdfea264697066735822122025921e666045b187e841179840b05ccdada540efd9face430da8860143d2527e64736f6c63430008140033",
  "linkReferences": {},
  "deployedLinkReferences": {}
}