{
  "_format": "hh-sol-artifact-1",
  "contractName": "ConfigurableERC721",
  "sourceName": "contracts/ConfigurableERC721.sol",
  "abi": [
    {
      "inputs": [
        {
          "internalType": "string",
          "name": "name",
          "type": "string"
        },
        {
          "internalType": "string",
          "name": "symbol",
          "type": "string"
        },
        {
          "internalType": "string",
          "name": "baseURI",
          "type": "string"
        },
        {
          "internalType": "address",
          "name": "owner",
          "type": "address"
        },
        {
          "internalType": "bool",
          "name": "_burnable",
          "type": "bool"
        },
        {
          "internalType": "bool",
          "name": "_pausable",
          "type": "bool"
        },
        {
          "internalType": "uint256",
          "name": "_maxSupply",
          "type": "uint256"
        },
        {
          "internalType": "enum ConfigurableERC721.MintAccessMode",
          "name": "_mintAccessMode",
          "type": "uint8"
        },
        {
          "internalType": "uint256",
          "name": "_walletMintLimit",
          "type": "uint256"
        }
      ],
      "stateMutability": "nonpayable",
      "type": "constructor"
    },
    {
      "inputs": [],
      "name": "BurningDisabled",
      "type": "error"
    },
    {
      "inputs": [
        {
          "internalType": "address",
          "name": "sender",
          "type": "address"
        },
        {
          "internalType": "uint256",
          "name": "tokenId",
          "type": "uint256"
        },
        {
          "internalType": "address",
          "name": "owner",
          "type": "address"
        }
      ],
      "name": "ERC721IncorrectOwner",
      "type": "error"
    },
    {
      "inputs": [
        {
          "internalType": "address",
          "name": "operator",
          "type": "address"
        },
        {
          "internalType": "uint256",
          "name": "tokenId",
          "type": "uint256"
        }
      ],
      "name": "ERC721InsufficientApproval",
      "type": "error"
    },
    {
      "inputs": [
        {
          "internalType": "address",
          "name": "approver",
          "type": "address"
        }
      ],
      "name": "ERC721InvalidApprover",
      "type": "error"
    },
    {
      "inputs": [
        {
          "internalType": "address",
          "name": "operator",
          "type": "address"
        }
      ],
      "name": "ERC721InvalidOperator",
      "type": "error"
    },
    {
      "inputs": [
        {
          "internalType": "address",
          "name": "owner",
          "type": "address"
        }
      ],
      "name": "ERC721InvalidOwner",
      "type": "error"
    },
    {
      "inputs": [
        {
          "internalType": "address",
          "name": "receiver",
          "type": "address"
        }
      ],
      "name": "ERC721InvalidReceiver",
      "type": "error"
    },
    {
      "inputs": [
        {
          "internalType": "address",
          "name": "sender",
          "type": "address"
        }
      ],
      "name": "ERC721InvalidSender",
      "type": "error"
    },
    {
      "inputs": [
        {
          "internalType": "uint256",
          "name": "tokenId",
          "type": "uint256"
        }
      ],
      "name": "ERC721NonexistentToken",
      "type": "error"
    },
    {
      "inputs": [],
      "name": "MaxSupplyReached",
      "type": "error"
    },
    {
      "inputs": [],
      "name": "MintingNotAllowed",
      "type": "error"
    },
    {
      "inputs": [
        {
          "internalType": "address",
          "name": "owner",
          "type": "address"
        }
      ],
      "name": "OwnableInvalidOwner",
      "type": "error"
    },
    {
      "inputs": [
        {
          "internalType": "address",
          "name": "account",
          "type": "address"
        }
      ],
      "name": "OwnableUnauthorizedAccount",
      "type": "error"
    },
    {
      "inputs": [],
      "name": "TokenPaused",
      "type": "error"
    },
    {
      "inputs": [],
      "name": "WalletMintLimitReached",
      "type": "error"
    },
    {
      "anonymous": false,
      "inputs": [
        {
          "indexed": true,
          "internalType": "address",
          "name": "owner",
          "type": "address"
        },
        {
          "indexed": true,
          "internalType": "address",
          "name": "approved",
          "type": "address"
        },
        {
          "indexed": true,
          "internalType": "uint256",
          "name": "tokenId",
          "type": "uint256"
        }
      ],
      "name": "Approval",
      "type": "event"
    },
    {
      "anonymous": false,
      "inputs": [
        {
          "indexed": true,
          "internalType": "address",
          "name": "owner",
          "type": "address"
        },
        {
          "indexed": true,
          "internalType": "address",
          "name": "operator",
          "type": "address"
        },
        {
          "indexed": false,
          "internalType": "bool",
          "name": "approved",
          "type": "bool"
        }
      ],
      "name": "ApprovalForAll",
      "type": "event"
    },
    {
      "anonymous": false,
      "inputs": [
        {
          "indexed": true,
          "internalType": "address",
          "name": "previousOwner",
          "type": "address"
        },
        {
          "indexed": true,
          "internalType": "address",
          "name": "newOwner",
          "type": "address"
        }
      ],
      "name": "OwnershipTransferred",
      "type": "event"
    },
    {
      "anonymous": false,
      "inputs": [
        {
          "indexed": true,
          "internalType": "address",
          "name": "from",
          "type": "address"
        },
        {
          "indexed": true,
          "internalType": "address",
          "name": "to",
          "type": "address"
        },
        {
          "indexed": true,
          "internalType": "uint256",
          "name": "tokenId",
          "type": "uint256"
        }
      ],
      "name": "Transfer",
      "type": "event"
    },
    {
      "inputs": [
        {
          "internalType": "address",
          "name": "to",
          "type": "address"
        },
        {
          "internalType": "uint256",
          "name": "tokenId",
          "type": "uint256"
        }
      ],
      "name": "approve",
      "outputs": [],
      "stateMutability": "nonpayable",
      "type": "function"
    },
    {
      "inputs": [
        {
          "internalType": "address",
          "name": "owner",
          "type": "address"
        }
      ],
      "name": "balanceOf",
      "outputs": [
        {
          "internalType": "uint256",
          "name": "",
          "type": "uint256"
        }
      ],
      "stateMutability": "view",
      "type": "function"
    },
    {
      "inputs": [
        {
          "internalType": "uint256",
          "name": "tokenId",
          "type": "uint256"
        }
      ],
      "name": "burn",
      "outputs": [],
      "stateMutability": "nonpayable",
      "type": "function"
    },
    {
      "inputs": [],
      "name": "burnable",
      "outputs": [
        {
          "internalType": "bool",
          "name": "",
          "type": "bool"
        }
      ],
      "stateMutability": "view",
      "type": "function"
    },
    {
      "inputs": [
        {
          "internalType": "uint256",
          "name": "tokenId",
          "type": "uint256"
        }
      ],
      "name": "getApproved",
      "outputs": [
        {
          "internalType": "address",
          "name": "",
          "type": "address"
        }
      ],
      "stateMutability": "view",
      "type": "function"
    },
    {
      "inputs": [
        {
          "internalType": "address",
          "name": "owner",
          "type": "address"
        },
        {
          "internalType": "address",
          "name": "operator",
          "type": "address"
        }
      ],
      "name": "isApprovedForAll",
      "outputs": [
        {
          "internalType": "bool",
          "name": "",
          "type": "bool"
        }
      ],
      "stateMutability": "view",
      "type": "function"
    },
    {
      "inputs": [],
      "name": "maxSupply",
      "outputs": [
        {
          "internalType": "uint256",
          "name": "",
          "type": "uint256"
        }
      ],
      "stateMutability": "view",
      "type": "function"
    },
    {
      "inputs": [],
      "name": "mint",
      "outputs": [
        {
          "internalType": "uint256",
          "name": "",
          "type": "uint256"
        }
      ],
      "stateMutability": "nonpayable",
      "type": "function"
    },
    {
      "inputs": [],
      "name": "mintAccessMode",
      "outputs": [
        {
          "internalType": "enum ConfigurableERC721.MintAccessMode",
          "name": "",
          "type": "uint8"
        }
      ],
      "stateMutability": "view",
      "type": "function"
    },
    {
      "inputs": [],
      "name": "name",
      "outputs": [
        {
          "internalType": "string",
          "name": "",
          "type": "string"
        }
      ],
      "stateMutability": "view",
      "type": "function"
    },
    {
      "inputs": [],
      "name": "owner",
      "outputs": [
        {
          "internalType": "address",
          "name": "",
          "type": "address"
        }
      ],
      "stateMutability": "view",
      "type": "function"
    },
    {
      "inputs": [
        {
          "internalType": "uint256",
          "name": "tokenId",
          "type": "uint256"
        }
      ],
      "name": "ownerOf",
      "outputs": [
        {
          "internalType": "address",
          "name": "",
          "type": "address"
        }
      ],
      "stateMutability": "view",
      "type": "function"
    },
    {
      "inputs": [],
      "name": "pausable",
      "outputs": [
        {
          "internalType": "bool",
          "name": "",
          "type": "bool"
        }
      ],
      "stateMutability": "view",
      "type": "function"
    },
    {
      "inputs": [],
      "name": "pause",
      "outputs": [],
      "stateMutability": "nonpayable",
      "type": "function"
    },
    {
      "inputs": [],
      "name": "paused",
      "outputs": [
        {
          "internalType": "bool",
          "name": "",
          "type": "bool"
        }
      ],
      "stateMutability": "view",
      "type": "function"
    },
    {
      "inputs": [],
      "name": "renounceOwnership",
      "outputs": [],
      "stateMutability": "nonpayable",
      "type": "function"
    },
    {
      "inputs": [
        {
          "internalType": "address",
          "name": "from",
          "type": "address"
        },
        {
          "internalType": "address",
          "name": "to",
          "type": "address"
        },
        {
          "internalType": "uint256",
          "name": "tokenId",
          "type": "uint256"
        }
      ],
      "name": "safeTransferFrom",
      "outputs": [],
      "stateMutability": "nonpayable",
      "type": "function"
    },
    {
      "inputs": [
        {
          "internalType": "address",
          "name": "from",
          "type": "address"
        },
        {
          "internalType": "address",
          "name": "to",
          "type": "address"
        },
        {
          "internalType": "uint256",
          "name": "tokenId",
          "type": "uint256"
        },
        {
          "internalType": "bytes",
          "name": "data",
          "type": "bytes"
        }
      ],
      "name": "safeTransferFrom",
      "outputs": [],
      "stateMutability": "nonpayable",
      "type": "function"
    },
    {
      "inputs": [
        {
          "internalType": "address",
          "name": "operator",
          "type": "address"
        },
        {
          "internalType": "bool",
          "name": "approved",
          "type": "bool"
        }
      ],
      "name": "setApprovalForAll",
      "outputs": [],
      "stateMutability": "nonpayable",
      "type": "function"
    },
    {
      "inputs": [
        {
          "internalType": "bytes4",
          "name": "interfaceId",
          "type": "bytes4"
        }
      ],
      "name": "supportsInterface",
      "outputs": [
        {
          "internalType": "bool",
          "name": "",
          "type": "bool"
        }
      ],
      "stateMutability": "view",
      "type": "function"
    },
    {
      "inputs": [],
      "name": "symbol",
      "outputs": [
        {
          "internalType": "string",
          "name": "",
          "type": "string"
        }
      ],
      "stateMutability": "view",
      "type": "function"
    },
    {
      "inputs": [
        {
          "internalType": "uint256",
          "name": "tokenId",
          "type": "uint256"
        }
      ],
      "name": "tokenURI",
      "outputs": [
        {
          "internalType": "string",
          "name": "",
          "type": "string"
        }
      ],
      "stateMutability": "view",
      "type": "function"
    },
    {
      "inputs": [],
      "name": "totalSupply",
      "outputs": [
        {
          "internalType": "uint256",
          "name": "",
          "type": "uint256"
        }
      ],
      "stateMutability": "view",
      "type": "function"
    },
    {
      "inputs": [
        {
          "internalType": "address",
          "name": "from",
          "type": "address"
        },
        {
          "internalType": "address",
          "name": "to",
          "type": "address"
        },
        {
          "internalType": "uint256",
          "name": "tokenId",
          "type": "uint256"
        }
      ],
      "name": "transferFrom",
      "outputs": [],
      "stateMutability": "nonpayable",
      "type": "function"
    },
    {
      "inputs": [
        {
          "internalType": "address",
          "name": "newOwner",
          "type": "address"
        }
      ],
      "name": "transferOwnership",
      "outputs": [],
      "stateMutability": "nonpayable",
      "type": "function"
    },
    {
      "inputs": [],
      "name": "unpause",
      "outputs": [],
      "stateMutability": "nonpayable",
      "type": "function"
    },
    {
      "inputs": [],
      "name": "walletMintLimit",
      "outputs": [
        {
          "internalType": "uint256",
          "name": "",
          "type": "uint256"
        }
      ],
      "stateMutability": "view",
      "type": "function"
    },
    {
      "inputs": [
        {
          "internalType": "address",
          "name": "wallet",
          "type": "address"
        }
      ],
      "name": "walletMints",
      "outputs": [
        {
          "internalType": "uint256",
          "name": "",
          "type": "uint256"
        }
      ],
      "stateMutability": "view",
      "type": "function"
    }
  ],
  "bytecode": "0x6101206040523480156200001257600080fd5b5060405162001b9338038062001b9383398101604081905262000035916200024c565b8589896000620000468382620003cb565b506001620000558282620003cb565b5050506001600160a01b0381166200008757604051631e4fbdf760e01b81526000600482015260240160405180910390fd5b6200009281620000f7565b5084151560805283151560a05260c0839052816002811115620000b957620000b962000497565b610100816002811115620000d157620000d162000497565b90525060e08190526009620000e78882620003cb565b50505050505050505050620004ad565b600680546001600160a01b038381166001600160a01b0319831681179093556040519116919082907f8be0079c531659141344cd1fd0a4f28419497f9722a3daafe3b4186f6b6457e090600090a35050565b634e487b7160e01b600052604160045260246000fd5b600082601f8301126200017157600080fd5b81516001600160401b03808211156200018e576200018e62000149565b604051601f8301601f19908116603f01168101908282118183101715620001b957620001b962000149565b81604052838152602092508683858801011115620001d657600080fd5b600091505b83821015620001fa5785820183015181830184015290820190620001db565b600093810190920192909252949350505050565b80516001600160a01b03811681146200022657600080fd5b919050565b805180151581146200022657600080fd5b8051600381106200022657600080fd5b60008060008060008060008060006101208a8c0312156200026c57600080fd5b89516001600160401b03808211156200028457600080fd5b620002928d838e016200015f565b9a5060208c0151915080821115620002a957600080fd5b620002b78d838e016200015f565b995060408c0151915080821115620002ce57600080fd5b50620002dd8c828d016200015f565b975050620002ee60608b016200020e565b9550620002fe60808b016200022b565b94506200030e60a08b016200022b565b935060c08a015192506200032560e08b016200023c565b91506101008a015190509295985092959850929598565b600181811c908216806200035157607f821691505b6020821081036200037257634e487b7160e01b600052602260045260246000fd5b50919050565b601f821115620003c657600081815260208120601f850160051c81016020861015620003a15750805b601f850160051c820191505b81811015620003c257828155600101620003ad565b5050505b505050565b81516001600160401b03811115620003e757620003e762000149565b620003ff81620003f884546200033c565b8462000378565b602080601f8311600181146200043757600084156200041e5750858301515b600019600386901b1c1916600185901b178555620003c2565b600085815260208120601f198616915b82811015620004685788860151825594840194600190910190840162000447565b5085821015620004875787850151600019600388901b60f8161c191681555b5050505050600190811b01905550565b634e487b7160e01b600052602160045260246000fd5b60805160a05160c05160e0516101005161164d62000546600039600081816103d601528181610633015261069d01526000818161030701526106e40152600081816103af015281816105c301526105ec01526000818161027c0152818161057401528181610802015281816108cc0152818161097901528181610a1c0152610c3c01526000818161034f015261088e015261164d6000f3fe608060405234801561001057600080fd5b50600436106101c45760003560e01c8063715018a6116100f9578063b88d4fde11610097578063ddb132f111610071578063ddb132f1146103d1578063e985e9c514610405578063f0293fd314610418578063f2fde38b1461044157600080fd5b8063b88d4fde14610384578063c87b56dd14610397578063d5abeb01146103aa57600080fd5b80638da5cb5b116100d35780638da5cb5b1461033157806395d89b4114610342578063a07c7ce41461034a578063a22cb4651461037157600080fd5b8063715018a6146102fa57806374c28561146103025780638456cb591461032957600080fd5b8063367758471161016657806342966c681161014057806342966c68146102b95780635c975abb146102cc5780636352211e146102d457806370a08231146102e757600080fd5b806336775847146102775780633f4ba83a1461029e57806342842e0e146102a657600080fd5b8063095ea7b3116101a2578063095ea7b3146102315780631249c58b1461024657806318160ddd1461025c57806323b872dd1461026457600080fd5b806301ffc9a7146101c957806306fdde03146101f1578063081812fc14610206575b600080fd5b6101dc6101d736600461128f565b610454565b60405190151581526020015b60405180910390f35b6101f96104a6565b6040516101e891906112f9565b61021961021436600461130c565b610538565b6040516001600160a01b0390911681526020016101e8565b61024461023f36600461133c565b610561565b005b61024e610570565b6040519081526020016101e8565b60075461024e565b610244610272366004611366565b610768565b6101dc7f000000000000000000000000000000000000000000000000000000000000000081565b6102446107f8565b6102446102b4366004611366565b61086c565b6102446102c736600461130c565b61088c565b6101dc610975565b6102196102e236600461130c565b6109ab565b61024e6102f53660046113a2565b6109b6565b6102446109fe565b61024e7f000000000000000000000000000000000000000000000000000000000000000081565b610244610a12565b6006546001600160a01b0316610219565b6101f9610a89565b6101dc7f000000000000000000000000000000000000000000000000000000000000000081565b61024461037f3660046113bd565b610a98565b61024461039236600461140f565b610aa3565b6101f96103a536600461130c565b610abb565b61024e7f000000000000000000000000000000000000000000000000000000000000000081565b6103f87f000000000000000000000000000000000000000000000000000000000000000081565b6040516101e89190611501565b6101dc610413366004611529565b610b59565b61024e6104263660046113a2565b6001600160a01b03166000908152600a602052604090205490565b61024461044f3660046113a2565b610b87565b60006001600160e01b031982166380ac58cd60e01b148061048557506001600160e01b03198216635b5e139f60e01b145b806104a057506301ffc9a760e01b6001600160e01b03198316145b92915050565b6060600080546104b59061155c565b80601f01602080910402602001604051908101604052809291908181526020018280546104e19061155c565b801561052e5780601f106105035761010080835404028352916020019161052e565b820191906000526020600020905b81548152906001019060200180831161051157829003601f168201915b5050505050905090565b600061054382610bc2565b506000828152600460205260409020546001600160a01b03166104a0565b61056c828233610bfb565b5050565b60007f000000000000000000000000000000000000000000000000000000000000000080156105a1575060085460ff165b156105bf5760405163e779249560e01b815260040160405180910390fd5b60007f000000000000000000000000000000000000000000000000000000000000000011801561061157507f000000000000000000000000000000000000000000000000000000000000000060075410155b1561062f5760405163d05cb60960e01b815260040160405180910390fd5b60007f00000000000000000000000000000000000000000000000000000000000000006002811115610663576106636114eb565b14801561067b57506006546001600160a01b03163314155b1561069957604051632ac9194b60e21b815260040160405180910390fd5b60027f000000000000000000000000000000000000000000000000000000000000000060028111156106cd576106cd6114eb565b0361074257336000908152600a60205260409020547f0000000000000000000000000000000000000000000000000000000000000000116107215760405163268de8bd60e01b815260040160405180910390fd5b336000908152600a6020526040812080549161073c83611596565b91905055505b60078054908190600061075483611596565b91905055506107633382610c08565b919050565b6001600160a01b03821661079757604051633250574960e11b8152600060048201526024015b60405180910390fd5b60006107a4838333610c22565b9050836001600160a01b0316816001600160a01b0316146107f2576040516364283d7b60e01b81526001600160a01b038086166004830152602482018490528216604482015260640161078e565b50505050565b610800610caf565b7f00000000000000000000000000000000000000000000000000000000000000006108605760405162461bcd60e51b815260206004820152601060248201526f14185d5cda5b99c8191a5cd8589b195960821b604482015260640161078e565b6008805460ff19169055565b61088783838360405180602001604052806000815250610aa3565b505050565b7f00000000000000000000000000000000000000000000000000000000000000006108ca57604051634dee6bd960e11b815260040160405180910390fd5b7f000000000000000000000000000000000000000000000000000000000000000080156108f9575060085460ff165b156109175760405163e779249560e01b815260040160405180910390fd5b33610921826109ab565b6001600160a01b0316146109695760405162461bcd60e51b815260206004820152600f60248201526e2737ba103a37b5b2b71037bbb732b960891b604482015260640161078e565b61097281610cdc565b50565b60007f000000000000000000000000000000000000000000000000000000000000000080156109a6575060085460ff165b905090565b60006104a082610bc2565b60006001600160a01b0382166109e2576040516322718ad960e21b81526000600482015260240161078e565b506001600160a01b031660009081526003602052604090205490565b610a06610caf565b610a106000610d17565b565b610a1a610caf565b7f0000000000000000000000000000000000000000000000000000000000000000610a7a5760405162461bcd60e51b815260206004820152601060248201526f14185d5cda5b99c8191a5cd8589b195960821b604482015260640161078e565b6008805460ff19166001179055565b6060600180546104b59061155c565b61056c338383610d69565b610aae848484610768565b6107f23385858585610e08565b6060610ac682610bc2565b5060098054610ad49061155c565b80601f0160208091040260200160405190810160405280929190818152602001828054610b009061155c565b8015610b4d5780601f10610b2257610100808354040283529160200191610b4d565b820191906000526020600020905b815481529060010190602001808311610b3057829003601f168201915b50505050509050919050565b6001600160a01b03918216600090815260056020908152604080832093909416825291909152205460ff1690565b610b8f610caf565b6001600160a01b038116610bb957604051631e4fbdf760e01b81526000600482015260240161078e565b61097281610d17565b6000818152600260205260408120546001600160a01b0316806104a057604051637e27328960e01b81526004810184905260240161078e565b6108878383836001610f33565b61056c828260405180602001604052806000815250611039565b6000828152600260205260408120546001600160a01b03167f00000000000000000000000000000000000000000000000000000000000000008015610c69575060085460ff165b8015610c7d57506001600160a01b03811615155b15610c9b5760405163e779249560e01b815260040160405180910390fd5b610ca6858585611051565b95945050505050565b6006546001600160a01b03163314610a105760405163118cdaa760e01b815233600482015260240161078e565b6000610ceb6000836000610c22565b90506001600160a01b03811661056c57604051637e27328960e01b81526004810183905260240161078e565b600680546001600160a01b038381166001600160a01b0319831681179093556040519116919082907f8be0079c531659141344cd1fd0a4f28419497f9722a3daafe3b4186f6b6457e090600090a35050565b6001600160a01b038216610d9b57604051630b61174360e31b81526001600160a01b038316600482015260240161078e565b6001600160a01b03838116600081815260056020908152604080832094871680845294825291829020805460ff191686151590811790915591519182527f17307eab39ab6107e8899845ad3d59bd9653f200f220920489ca2b5937696c31910160405180910390a3505050565b6001600160a01b0383163b15610f2c57604051630a85bd0160e11b81526001600160a01b0384169063150b7a0290610e4a9088908890879087906004016115bd565b6020604051808303816000875af1925050508015610e85575060408051601f3d908101601f19168201909252610e82918101906115fa565b60015b610eee573d808015610eb3576040519150601f19603f3d011682016040523d82523d6000602084013e610eb8565b606091505b508051600003610ee657604051633250574960e11b81526001600160a01b038516600482015260240161078e565b805160208201fd5b6001600160e01b03198116630a85bd0160e11b14610f2a57604051633250574960e11b81526001600160a01b038516600482015260240161078e565b505b5050505050565b8080610f4757506001600160a01b03821615155b15611009576000610f5784610bc2565b90506001600160a01b03831615801590610f835750826001600160a01b0316816001600160a01b031614155b8015610f965750610f948184610b59565b155b15610fbf5760405163a9fbf51f60e01b81526001600160a01b038416600482015260240161078e565b81156110075783856001600160a01b0316826001600160a01b03167f8c5be1e5ebec7d5bd14f71427d1e84f3dd0314c0f7b2291e5b200ac8c7c3b92560405160405180910390a45b505b5050600090815260046020526040902080546001600160a01b0319166001600160a01b0392909216919091179055565b611043838361114a565b610887336000858585610e08565b6000828152600260205260408120546001600160a01b039081169083161561107e5761107e8184866111af565b6001600160a01b038116156110bc5761109b600085600080610f33565b6001600160a01b038116600090815260036020526040902080546000190190555b6001600160a01b038516156110eb576001600160a01b0385166000908152600360205260409020805460010190555b60008481526002602052604080822080546001600160a01b0319166001600160a01b0389811691821790925591518793918516917fddf252ad1be2c89b69c2b068fc378daa952ba7f163c4a11628f55a4df523b3ef91a4949350505050565b6001600160a01b03821661117457604051633250574960e11b81526000600482015260240161078e565b600061118283836000610c22565b90506001600160a01b03811615610887576040516339e3563760e11b81526000600482015260240161078e565b6111ba838383611213565b610887576001600160a01b0383166111e857604051637e27328960e01b81526004810182905260240161078e565b60405163177e802f60e01b81526001600160a01b03831660048201526024810182905260440161078e565b60006001600160a01b038316158015906112715750826001600160a01b0316846001600160a01b0316148061124d575061124d8484610b59565b8061127157506000828152600460205260409020546001600160a01b038481169116145b949350505050565b6001600160e01b03198116811461097257600080fd5b6000602082840312156112a157600080fd5b81356112ac81611279565b9392505050565b6000815180845260005b818110156112d9576020818501810151868301820152016112bd565b506000602082860101526020601f19601f83011685010191505092915050565b6020815260006112ac60208301846112b3565b60006020828403121561131e57600080fd5b5035919050565b80356001600160a01b038116811461076357600080fd5b6000806040838503121561134f57600080fd5b61135883611325565b946020939093013593505050565b60008060006060848603121561137b57600080fd5b61138484611325565b925061139260208501611325565b9150604084013590509250925092565b6000602082840312156113b457600080fd5b6112ac82611325565b600080604083850312156113d057600080fd5b6113d983611325565b9150602083013580151581146113ee57600080fd5b809150509250929050565b634e487b7160e01b600052604160045260246000fd5b6000806000806080858703121561142557600080fd5b61142e85611325565b935061143c60208601611325565b925060408501359150606085013567ffffffffffffffff8082111561146057600080fd5b818701915087601f83011261147457600080fd5b813581811115611486576114866113f9565b604051601f8201601f19908116603f011681019083821181831017156114ae576114ae6113f9565b816040528281528a60208487010111156114c757600080fd5b82602086016020830137600060208483010152809550505050505092959194509250565b634e487b7160e01b600052602160045260246000fd5b602081016003831061152357634e487b7160e01b600052602160045260246000fd5b91905290565b6000806040838503121561153c57600080fd5b61154583611325565b915061155360208401611325565b90509250929050565b600181811c9082168061157057607f821691505b60208210810361159057634e487b7160e01b600052602260045260246000fd5b50919050565b6000600182016115b657634e487b7160e01b600052601160045260246000fd5b5060010190565b6001600160a01b03858116825284166020820152604081018390526080606082018190526000906115f0908301846112b3565b9695505050505050565b60006020828403121561160c57600080fd5b81516112ac8161127956fea2646970667358221220fed0bd77038777851206190b470aaab43afd19e92e52a09022beb5850bdd951f64736f6c63430008140033",
  "linkReferences": {},
  "deployedLinkReferences": {}
}