{
  "_format": "hh-sol-artifact-1",
  "contractName": "AdvancedERC721",
  "sourceName": "contracts/AdvancedERC721.sol",
  "abi": [
    {
      "inputs": [
        {
          "internalType": "string",
          "name": "name",
          "type": "string"
        },
        {
          "internalType": "string",
          "name": "symbol",
          "type": "string"
        },
        {
          "internalType": "address",
          "name": "admin",
          "type": "address"
        },
        {
          "internalType": "uint256",
          "name": "_maxSupply",
          "type": "uint256"
        },
        {
          "internalType": "string",
          "name": "baseURI",
          "type": "string"
        },
        {
          "internalType": "address",
          "name": "royaltyReceiver",
          "type": "address"
        },
        {
          "internalType": "uint96",
          "name": "royaltyFeeNumerator",
          "type": "uint96"
        }
      ],
      "stateMutability": "nonpayable",
      "type": "constructor"
    },
    {
      "inputs": [],
      "name": "AccessControlBadConfirmation",
      "type": "error"
    },
    {
      "inputs": [
        {
          "internalType": "address",
          "name": "account",
          "type": "address"
        },
        {
          "internalType": "bytes32",
          "name": "neededRole",
          "type": "bytes32"
        }
      ],
      "name": "AccessControlUnauthorizedAccount",
      "type": "error"
    },
    {
      "inputs": [],
      "name": "ContractPaused",
      "type": "error"
    },
    {
      "inputs": [
        {
          "internalType": "uint256",
          "name": "numerator",
          "type": "uint256"
        },
        {
          "internalType": "uint256",
          "name": "denominator",
          "type": "uint256"
        }
      ],
      "name": "ERC2981InvalidDefaultRoyalty",
      "type": "error"
    },
    {
      "inputs": [
        {
          "internalType": "address",
          "name": "receiver",
          "type": "address"
        }
      ],
      "name": "ERC2981InvalidDefaultRoyaltyReceiver",
      "type": "error"
    },
    {
      "inputs": [
        {
          "internalType": "uint256",
          "name": "tokenId",
          "type": "uint256"
        },
        {
          "internalType": "uint256",
          "name": "numerator",
          "type": "uint256"
        },
        {
          "internalType": "uint256",
          "name": "denominator",
          "type": "uint256"
        }
      ],
      "name": "ERC2981InvalidTokenRoyalty",
      "type": "error"
    },
    {
      "inputs": [
        {
          "internalType": "uint256",
          "name": "tokenId",
          "type": "uint256"
        },
        {
          "internalType": "address",
          "name": "receiver",
          "type": "address"
        }
      ],
      "name": "ERC2981InvalidTokenRoyaltyReceiver",
      "type": "error"
    },
    {
      "inputs": [
        {
          "internalType": "address",
          "name": "sender",
          "type": "address"
        },
        {
          "internalType": "uint256",
          "name": "tokenId",
          "type": "uint256"
        },
        {
          "internalType": "address",
          "name": "owner",
          "type": "address"
        }
      ],
      "name": "ERC721IncorrectOwner",
      "type": "error"
    },
    {
      "inputs": [
        {
          "internalType": "address",
          "name": "operator",
          "type": "address"
        },
        {
          "internalType": "uint256",
          "name": "tokenId",
          "type": "uint256"
        }
      ],
      "name": "ERC721InsufficientApproval",
      "type": "error"
    },
    {
      "inputs": [
        {
          "internalType": "address",
          "name": "approver",
          "type": "address"
        }
      ],
      "name": "ERC721InvalidApprover",
      "type": "error"
    },
    {
      "inputs": [
        {
          "internalType": "address",
          "name": "operator",
          "type": "address"
        }
      ],
      "name": "ERC721InvalidOperator",
      "type": "error"
    },
    {
      "inputs": [
        {
          "internalType": "address",
          "name": "owner",
          "type": "address"
        }
      ],
      "name": "ERC721InvalidOwner",
      "type": "error"
    },
    {
      "inputs": [
        {
          "internalType": "address",
          "name": "receiver",
          "type": "address"
        }
      ],
      "name": "ERC721InvalidReceiver",
      "type": "error"
    },
    {
      "inputs": [
        {
          "internalType": "address",
          "name": "sender",
          "type": "address"
        }
      ],
      "name": "ERC721InvalidSender",
      "type": "error"
    },
    {
      "inputs": [
        {
          "internalType": "uint256",
          "name": "tokenId",
          "type": "uint256"
        }
      ],
      "name": "ERC721NonexistentToken",
      "type": "error"
    },
    {
      "inputs": [],
      "name": "InsufficientPayment",
      "type": "error"
    },
    {
      "inputs": [],
      "name": "MaxSupplyExceeded",
      "type": "error"
    },
    {
      "anonymous": false,
      "inputs": [
        {
          "indexed": true,
          "internalType": "address",
          "name": "owner",
          "type": "address"
        },
        {
          "indexed": true,
          "internalType": "address",
          "name": "approved",
          "type": "address"
        },
        {
          "indexed": true,
          "internalType": "uint256",
          "name": "tokenId",
          "type": "uint256"
        }
      ],
      "name": "Approval",
      "type": "event"
    },
    {
      "anonymous": false,
      "inputs": [
        {
          "indexed": true,
          "internalType": "address",
          "name": "owner",
          "type": "address"
        },
        {
          "indexed": true,
          "internalType": "address",
          "name": "operator",
          "type": "address"
        },
        {
          "indexed": false,
          "internalType": "bool",
          "name": "approved",
          "type": "bool"
        }
      ],
      "name": "ApprovalForAll",
      "type": "event"
    },
    {
      "anonymous": false,
      "inputs": [
        {
          "indexed": true,
          "internalType": "bytes32",
          "name": "role",
          "type": "bytes32"
        },
        {
          "indexed": true,
          "internalType": "bytes32",
          "name": "previousAdminRole",
          "type": "bytes32"
        },
        {
          "indexed": true,
          "internalType": "bytes32",
          "name": "newAdminRole",
          "type": "bytes32"
        }
      ],
      "name": "RoleAdminChanged",
      "type": "event"
    },
    {
      "anonymous": false,
      "inputs": [
        {
          "indexed": true,
          "internalType": "bytes32",
          "name": "role",
          "type": "bytes32"
        },
        {
          "indexed": true,
          "internalType": "address",
          "name": "account",
          "type": "address"
        },
        {
          "indexed": true,
          "internalType": "address",
          "name": "sender",
          "type": "address"
        }
      ],
      "name": "RoleGranted",
      "type": "event"
    },
    {
      "anonymous": false,
      "inputs": [
        {
          "indexed": true,
          "internalType": "bytes32",
          "name": "role",
          "type": "bytes32"
        },
        {
          "indexed": true,
          "internalType": "address",
          "name": "account",
          "type": "address"
        },
        {
          "indexed": true,
          "internalType": "address",
          "name": "sender",
          "type": "address"
        }
      ],
      "name": "RoleRevoked",
      "type": "event"
    },
    {
      "anonymous": false,
      "inputs": [
        {
          "indexed": true,
          "internalType": "address",
          "name": "from",
          "type": "address"
        },
        {
          "indexed": true,
          "internalType": "address",
          "name": "to",
          "type": "address"
        },
        {
          "indexed": true,
          "internalType": "uint256",
          "name": "tokenId",
          "type": "uint256"
        }
      ],
      "name": "Transfer",
      "type": "event"
    },
    {
      "inputs": [],
      "name": "DEFAULT_ADMIN_ROLE",
      "outputs": [
        {
          "internalType": "bytes32",
          "name": "",
          "type": "bytes32"
        }
      ],
      "stateMutability": "view",
      "type": "function"
    },
    {
      "inputs": [],
      "name": "METADATA_ROLE",
      "outputs": [
        {
          "internalType": "bytes32",
          "name": "",
          "type": "bytes32"
        }
      ],
      "stateMutability": "view",
      "type": "function"
    },
    {
      "inputs": [],
      "name": "MINTER_ROLE",
      "outputs": [
        {
          "internalType": "bytes32",
          "name": "",
          "type": "bytes32"
        }
      ],
      "stateMutability": "view",
      "type": "function"
    },
    {
      "inputs": [],
      "name": "PAUSER_ROLE",
      "outputs": [
        {
          "internalType": "bytes32",
          "name": "",
          "type": "bytes32"
        }
      ],
      "stateMutability": "view",
      "type": "function"
    },
    {
      "inputs": [
        {
          "internalType": "address",
          "name": "to",
          "type": "address"
        },
        {
          "internalType": "uint256",
          "name": "tokenId",
          "type": "uint256"
        }
      ],
      "name": "approve",
      "outputs": [],
      "stateMutability": "nonpayable",
      "type": "function"
    },
    {
      "inputs": [
        {
          "internalType": "address",
          "name": "owner",
          "type": "address"
        }
      ],
      "name": "balanceOf",
      "outputs": [
        {
          "internalType": "uint256",
          "name": "",
          "type": "uint256"
        }
      ],
      "stateMutability": "view",
      "type": "function"
    },
    {
      "inputs": [
        {
          "internalType": "uint256",
          "name": "tokenId",
          "type": "uint256"
        }
      ],
      "name": "burn",
      "outputs": [],
      "stateMutability": "nonpayable",
      "type": "function"
    },
    {
      "inputs": [
        {
          "internalType": "uint256",
          "name": "tokenId",
          "type": "uint256"
        }
      ],
      "name": "getApproved",
      "outputs": [
        {
          "internalType": "address",
          "name": "",
          "type": "address"
        }
      ],
      "stateMutability": "view",
      "type": "function"
    },
    {
      "inputs": [
        {
          "internalType": "bytes32",
          "name": "role",
          "type": "bytes32"
        }
      ],
      "name": "getRoleAdmin",
      "outputs": [
        {
          "internalType": "bytes32",
          "name": "",
          "type": "bytes32"
        }
      ],
      "stateMutability": "view",
      "type": "function"
    },
    {
      "inputs": [
        {
          "internalType": "bytes32",
          "name": "role",
          "type": "bytes32"
        },
        {
          "internalType": "address",
          "name": "account",
          "type": "address"
        }
      ],
      "name": "grantRole",
      "outputs": [],
      "stateMutability": "nonpayable",
      "type": "function"
    },
    {
      "inputs": [
        {
          "internalType": "bytes32",
          "name": "role",
          "type": "bytes32"
        },
        {
          "internalType": "address",
          "name": "account",
          "type": "address"
        }
      ],
      "name": "hasRole",
      "outputs": [
        {
          "internalType": "bool",
          "name": "",
          "type": "bool"
        }
      ],
      "stateMutability": "view",
      "type": "function"
    },
    {
      "inputs": [
        {
          "internalType": "address",
          "name": "owner",
          "type": "address"
        },
        {
          "internalType": "address",
          "name": "operator",
          "type": "address"
        }
      ],
      "name": "isApprovedForAll",
      "outputs": [
        {
          "internalType": "bool",
          "name": "",
          "type": "bool"
        }
      ],
      "stateMutability": "view",
      "type": "function"
    },
    {
      "inputs": [],
      "name": "maxSupply",
      "outputs": [
        {
          "internalType": "uint256",
          "name": "",
          "type": "uint256"
        }
      ],
      "stateMutability": "view",
      "type": "function"
    },
    {
      "inputs": [
        {
          "internalType": "address",
          "name": "to",
          "type": "address"
        }
      ],
      "name": "mint",
      "outputs": [],
      "stateMutability": "nonpayable",
      "type": "function"
    },
    {
      "inputs": [],
      "name": "mintPrice",
      "outputs": [
        {
          "internalType": "uint256",
          "name": "",
          "type": "uint256"
        }
      ],
      "stateMutability": "view",
      "type": "function"
    },
    {
      "inputs": [
        {
          "internalType": "address",
          "name": "to",
          "type": "address"
        }
      ],
      "name": "mintWithPayment",
      "outputs": [],
      "stateMutability": "payable",
      "type": "function"
    },
    {
      "inputs": [],
      "name": "name",
      "outputs": [
        {
          "internalType": "string",
          "name": "",
          "type": "string"
        }
      ],
      "stateMutability": "view",
      "type": "function"
    },
    {
      "inputs": [
        {
          "internalType": "uint256",
          "name": "tokenId",
          "type": "uint256"
        }
      ],
      "name": "ownerOf",
      "outputs": [
        {
          "internalType": "address",
          "name": "",
          "type": "address"
        }
      ],
      "stateMutability": "view",
      "type": "function"
    },
    {
      "inputs": [],
      "name": "pause",
      "outputs": [],
      "stateMutability": "nonpayable",
      "type": "function"
    },
    {
      "inputs": [],
      "name": "paused",
      "outputs": [
        {
          "internalType": "bool",
          "name": "",
          "type": "bool"
        }
      ],
      "stateMutability": "view",
      "type": "function"
    },
    {
      "inputs": [],
      "name": "paymentToken",
      "outputs": [
        {
          "internalType": "address",
          "name": "",
          "type": "address"
        }
      ],
      "stateMutability": "view",
      "type": "function"
    },
    {
      "inputs": [
        {
          "internalType": "bytes32",
          "name": "role",
          "type": "bytes32"
        },
        {
          "internalType": "address",
          "name": "callerConfirmation",
          "type": "address"
        }
      ],
      "name": "renounceRole",
      "outputs": [],
      "stateMutability": "nonpayable",
      "type": "function"
    },
    {
      "inputs": [
        {
          "internalType": "bytes32",
          "name": "role",
          "type": "bytes32"
        },
        {
          "internalType": "address",
          "name": "account",
          "type": "address"
        }
      ],
      "name": "revokeRole",
      "outputs": [],
      "stateMutability": "nonpayable",
      "type": "function"
    },
    {
      "inputs": [
        {
          "internalType": "uint256",
          "name": "tokenId",
          "type": "uint256"
        },
        {
          "internalType": "uint256",
          "name": "salePrice",
          "type": "uint256"
        }
      ],
      "name": "royaltyInfo",
      "outputs": [
        {
          "internalType": "address",
          "name": "receiver",
          "type": "address"
        },
        {
          "internalType": "uint256",
          "name": "amount",
          "type": "uint256"
        }
      ],
      "stateMutability": "view",
      "type": "function"
    },
    {
      "inputs": [
        {
          "internalType": "address",
          "name": "from",
          "type": "address"
        },
        {
          "internalType": "address",
          "name": "to",
          "type": "address"
        },
        {
          "internalType": "uint256",
          "name": "tokenId",
          "type": "uint256"
        }
      ],
      "name": "safeTransferFrom",
      "outputs": [],
      "stateMutability": "nonpayable",
      "type": "function"
    },
    {
      "inputs": [
        {
          "internalType": "address",
          "name": "from",
          "type": "address"
        },
        {
          "internalType": "address",
          "name": "to",
          "type": "address"
        },
        {
          "internalType": "uint256",
          "name": "tokenId",
          "type": "uint256"
        },
        {
          "internalType": "bytes",
          "name": "data",
          "type": "bytes"
        }
      ],
      "name": "safeTransferFrom",
      "outputs": [],
      "stateMutability": "nonpayable",
      "type": "function"
    },
    {
      "inputs": [
        {
          "internalType": "address",
          "name": "operator",
          "type": "address"
        },
        {
          "internalType": "bool",
          "name": "approved",
          "type": "bool"
        }
      ],
      "name": "setApprovalForAll",
      "outputs": [],
      "stateMutability": "nonpayable",
      "type": "function"
    },
    {
      "inputs": [
        {
          "internalType": "string",
          "name": "baseURI",
          "type": "string"
        }
      ],
      "name": "setBaseURI",
      "outputs": [],
      "stateMutability": "nonpayable",
      "type": "function"
    },
    {
      "inputs": [
        {
          "internalType": "uint256",
          "name": "price",
          "type": "uint256"
        },
        {
          "internalType": "address",
          "name": "token",
          "type": "address"
        }
      ],
      "name": "setMintPrice",
      "outputs": [],
      "stateMutability": "nonpayable",
      "type": "function"
    },
    {
      "inputs": [
        {
          "internalType": "bytes4",
          "name": "interfaceId",
          "type": "bytes4"
        }
      ],
      "name": "supportsInterface",
      "outputs": [
        {
          "internalType": "bool",
          "name": "",
          "type": "bool"
        }
      ],
      "stateMutability": "view",
      "type": "function"
    },
    {
      "inputs": [],
      "name": "symbol",
      "outputs": [
        {
          "internalType": "string",
          "name": "",
          "type": "string"
        }
      ],
      "stateMutability": "view",
      "type": "function"
    },
    {
      "inputs": [
        {
          "internalType": "uint256",
          "name": "tokenId",
          "type": "uint256"
        }
      ],
      "name": "tokenURI",
      "outputs": [
        {
          "internalType": "string",
          "name": "",
          "type": "string"
        }
      ],
      "stateMutability": "view",
      "type": "function"
    },
    {
      "inputs": [
        {
          "internalType": "address",
          "name": "from",
          "type": "address"
        },
        {
          "internalType": "address",
          "name": "to",
          "type": "address"
        },
        {
          "internalType": "uint256",
          "name": "tokenId",
          "type": "uint256"
        }
      ],
      "name": "transferFrom",
      "outputs": [],
      "stateMutability": "nonpayable",
      "type": "function"
    },
    {
      "inputs": [],
      "name": "unpause",
      "outputs": [],
      "stateMutability": "nonpayable",
      "type": "function"
    },
    {
      "inputs": [],
      "name": "withdraw",
      "outputs": [],
      "stateMutability": "nonpayable",
      "type": "function"
    }
  ],
  "bytecode": "0x60a06040523480156200001157600080fd5b50604051620023bf380380620023bf833981016040819052620000349162000368565b86866000620000448382620004da565b506001620000538282620004da565b5050506080849052600a620000698482620004da565b506200007760008662000128565b50620000a47f9f2df0fed2c77648de5860a4cc508cd0818c85b8b8a1ab4ceeef8d981c8956a68662000128565b50620000d17f6bd6b5318a46e5fff572d5e4258a20774aab40cc35ac7680654b9081fcc82f808662000128565b50620000fe7f65d7a28e3265b37a6474929f336521b332c1681b933f6cb9f3376673440d862a8662000128565b506001600160a01b038216156200011b576200011b8282620001db565b50505050505050620005a6565b60008281526008602090815260408083206001600160a01b038516845290915281205460ff16620001d15760008381526008602090815260408083206001600160a01b03861684529091529020805460ff19166001179055620001883390565b6001600160a01b0316826001600160a01b0316847f2f8788117e7eff1d82e926ec794901d17c78024a50270940304540a733656f0d60405160405180910390a4506001620001d5565b5060005b92915050565b6127106001600160601b0382168110156200022057604051636f483d0960e01b81526001600160601b0383166004820152602481018290526044015b60405180910390fd5b6001600160a01b0383166200024c57604051635b6cc80560e11b81526000600482015260240162000217565b50604080518082019091526001600160a01b039092168083526001600160601b039091166020909201829052600160a01b90910217600655565b634e487b7160e01b600052604160045260246000fd5b600082601f830112620002ae57600080fd5b81516001600160401b0380821115620002cb57620002cb62000286565b604051601f8301601f19908116603f01168101908282118183101715620002f657620002f662000286565b816040528381526020925086838588010111156200031357600080fd5b600091505b8382101562000337578582018301518183018401529082019062000318565b600093810190920192909252949350505050565b80516001600160a01b03811681146200036357600080fd5b919050565b600080600080600080600060e0888a0312156200038457600080fd5b87516001600160401b03808211156200039c57600080fd5b620003aa8b838c016200029c565b985060208a0151915080821115620003c157600080fd5b620003cf8b838c016200029c565b9750620003df60408b016200034b565b965060608a0151955060808a0151915080821115620003fd57600080fd5b506200040c8a828b016200029c565b9350506200041d60a089016200034b565b60c08901519092506001600160601b03811681146200043b57600080fd5b8091505092959891949750929550565b600181811c908216806200046057607f821691505b6020821081036200048157634e487b7160e01b600052602260045260246000fd5b50919050565b601f821115620004d557600081815260208120601f850160051c81016020861015620004b05750805b601f850160051c820191505b81811015620004d157828155600101620004bc565b5050505b505050565b81516001600160401b03811115620004f657620004f662000286565b6200050e816200050784546200044b565b8462000487565b602080601f8311600181146200054657600084156200052d5750858301515b600019600386901b1c1916600185901b178555620004d1565b600085815260208120601f198616915b82811015620005775788860151825594840194600190910190840162000556565b5085821015620005965787850151600019600388901b60f8161c191681555b5050505050600190811b01905550565b608051611de1620005de6000396000818161066001528181610b9f01528181610bc801528181610d310152610d5a0152611de16000f3fe6080604052600436106102045760003560e01c80635c975abb11610118578063a22cb465116100a0578063d53913931161006f578063d5391393146105fa578063d547741f1461062e578063d5abeb011461064e578063e63ab1e914610682578063e985e9c5146106b657600080fd5b8063a22cb46514610587578063b88d4fde146105a7578063bc34e241146105c7578063c87b56dd146105da57600080fd5b806370a08231116100e757806370a08231146105085780638456cb591461052857806391d148541461053d57806395d89b411461055d578063a217fddf1461057257600080fd5b80635c975abb1461049a5780636352211e146104b25780636817c76c146104d25780636a627842146104e857600080fd5b80633013ce291161019b5780633f4ba83a1161016a5780633f4ba83a1461040557806342842e0e1461041a57806342966c681461043a578063449b8fb11461045a57806355f804b31461047a57600080fd5b80633013ce291461037757806336568abe1461039c57806338841782146103bc5780633ccfd60b146103f057600080fd5b806323b872dd116101d757806323b872dd146102ba578063248a9ca3146102da5780632a55205a146103185780632f2ff15d1461035757600080fd5b806301ffc9a71461020957806306fdde031461023e578063081812fc14610260578063095ea7b314610298575b600080fd5b34801561021557600080fd5b50610229610224366004611800565b6106d6565b60405190151581526020015b60405180910390f35b34801561024a57600080fd5b506102536106e7565b604051610235919061186d565b34801561026c57600080fd5b5061028061027b366004611880565b610779565b6040516001600160a01b039091168152602001610235565b3480156102a457600080fd5b506102b86102b33660046118b5565b6107a2565b005b3480156102c657600080fd5b506102b86102d53660046118df565b6107b1565b3480156102e657600080fd5b5061030a6102f5366004611880565b60009081526008602052604090206001015490565b604051908152602001610235565b34801561032457600080fd5b5061033861033336600461191b565b610841565b604080516001600160a01b039093168352602083019190915201610235565b34801561036357600080fd5b506102b861037236600461193d565b6108c6565b34801561038357600080fd5b50600b546102809061010090046001600160a01b031681565b3480156103a857600080fd5b506102b86103b736600461193d565b6108eb565b3480156103c857600080fd5b5061030a7f6bd6b5318a46e5fff572d5e4258a20774aab40cc35ac7680654b9081fcc82f8081565b3480156103fc57600080fd5b506102b8610923565b34801561041157600080fd5b506102b8610a5d565b34801561042657600080fd5b506102b86104353660046118df565b610a94565b34801561044657600080fd5b506102b8610455366004611880565b610aaf565b34801561046657600080fd5b506102b861047536600461193d565b610abb565b34801561048657600080fd5b506102b86104953660046119f5565b610af5565b3480156104a657600080fd5b50600b5460ff16610229565b3480156104be57600080fd5b506102806104cd366004611880565b610b2b565b3480156104de57600080fd5b5061030a600c5481565b3480156104f457600080fd5b506102b8610503366004611a3e565b610b36565b34801561051457600080fd5b5061030a610523366004611a3e565b610c13565b34801561053457600080fd5b506102b8610c5b565b34801561054957600080fd5b5061022961055836600461193d565b610c95565b34801561056957600080fd5b50610253610cc0565b34801561057e57600080fd5b5061030a600081565b34801561059357600080fd5b506102b86105a2366004611a67565b610ccf565b3480156105b357600080fd5b506102b86105c2366004611a9e565b610cda565b6102b86105d5366004611a3e565b610cf2565b3480156105e657600080fd5b506102536105f5366004611880565b610e67565b34801561060657600080fd5b5061030a7f9f2df0fed2c77648de5860a4cc508cd0818c85b8b8a1ab4ceeef8d981c8956a681565b34801561063a57600080fd5b506102b861064936600461193d565b610ecf565b34801561065a57600080fd5b5061030a7f000000000000000000000000000000000000000000000000000000000000000081565b34801561068e57600080fd5b5061030a7f65d7a28e3265b37a6474929f336521b332c1681b933f6cb9f3376673440d862a81565b3480156106c257600080fd5b506102296106d1366004611b1a565b610ef4565b60006106e182610f22565b92915050565b6060600080546106f690611b44565b80601f016020809104026020016040519081016040528092919081815260200182805461072290611b44565b801561076f5780601f106107445761010080835404028352916020019161076f565b820191906000526020600020905b81548152906001019060200180831161075257829003601f168201915b5050505050905090565b600061078482610f47565b506000828152600460205260409020546001600160a01b03166106e1565b6107ad828233610f80565b5050565b6001600160a01b0382166107e057604051633250574960e11b8152600060048201526024015b60405180910390fd5b60006107ed838333610f8d565b9050836001600160a01b0316816001600160a01b03161461083b576040516364283d7b60e01b81526001600160a01b03808616600483015260248201849052821660448201526064016107d7565b50505050565b600082815260076020526040812080548291906001600160a01b03811690600160a01b90046001600160601b0316816108955750506006546001600160a01b03811690600160a01b90046001600160601b03165b60006127106108ad6001600160601b03841689611b94565b6108b79190611bab565b92989297509195505050505050565b6000828152600860205260409020600101546108e181611086565b61083b8383611090565b6001600160a01b03811633146109145760405163334bd91960e11b815260040160405180910390fd5b61091e8282611124565b505050565b600061092e81611086565b600b5461010090046001600160a01b031661096f5760405133904780156108fc02916000818181858888f193505050501580156107ad573d6000803e3d6000fd5b600b546040516370a0823160e01b81523060048201526101009091046001600160a01b031690819063a9059cbb90339083906370a0823190602401602060405180830381865afa1580156109c7573d6000803e3d6000fd5b505050506040513d601f19601f820116820180604052508101906109eb9190611bcd565b6040516001600160e01b031960e085901b1681526001600160a01b03909216600483015260248201526044016020604051808303816000875af1158015610a36573d6000803e3d6000fd5b505050506040513d601f19601f8201168201806040525081019061091e9190611be6565b50565b7f65d7a28e3265b37a6474929f336521b332c1681b933f6cb9f3376673440d862a610a8781611086565b50600b805460ff19169055565b61091e83838360405180602001604052806000815250610cda565b6107ad60008233610f8d565b6000610ac681611086565b50600c91909155600b80546001600160a01b0390921661010002610100600160a81b0319909216919091179055565b7f6bd6b5318a46e5fff572d5e4258a20774aab40cc35ac7680654b9081fcc82f80610b1f81611086565b600a61091e8382611c49565b60006106e182610f47565b7f9f2df0fed2c77648de5860a4cc508cd0818c85b8b8a1ab4ceeef8d981c8956a6610b6081611086565b600b5460ff1615610b845760405163ab35696f60e01b815260040160405180910390fd5b6009805460009182610b9583611d09565b91905055905060007f0000000000000000000000000000000000000000000000000000000000000000118015610beb57507f00000000000000000000000000000000000000000000000000000000000000008110155b15610c0957604051638a164f6360e01b815260040160405180910390fd5b61091e8382611191565b60006001600160a01b038216610c3f576040516322718ad960e21b8152600060048201526024016107d7565b506001600160a01b031660009081526003602052604090205490565b7f65d7a28e3265b37a6474929f336521b332c1681b933f6cb9f3376673440d862a610c8581611086565b50600b805460ff19166001179055565b60009182526008602090815260408084206001600160a01b0393909316845291905290205460ff1690565b6060600180546106f690611b44565b6107ad3383836111ab565b610ce58484846107b1565b61083b338585858561124a565b600b5460ff1615610d165760405163ab35696f60e01b815260040160405180910390fd5b6009805460009182610d2783611d09565b91905055905060007f0000000000000000000000000000000000000000000000000000000000000000118015610d7d57507f00000000000000000000000000000000000000000000000000000000000000008110155b15610d9b57604051638a164f6360e01b815260040160405180910390fd5b600b5461010090046001600160a01b0316610dd857600c54341015610dd35760405163cd1c886760e01b815260040160405180910390fd5b610e5d565b600b54600c546040516323b872dd60e01b815233600482015230602482015260448101919091526101009091046001600160a01b0316906323b872dd906064016020604051808303816000875af1158015610e37573d6000803e3d6000fd5b505050506040513d601f19601f82011682018060405250810190610e5b9190611be6565b505b6107ad8282611191565b6060610e7282610f47565b506000610e7d611375565b90506000815111610e9d5760405180602001604052806000815250610ec8565b80610ea784611384565b604051602001610eb8929190611d22565b6040516020818303038152906040525b9392505050565b600082815260086020526040902060010154610eea81611086565b61083b8383611124565b6001600160a01b03918216600090815260056020908152604080832093909416825291909152205460ff1690565b60006001600160e01b03198216637965db0b60e01b14806106e157506106e182611417565b6000818152600260205260408120546001600160a01b0316806106e157604051637e27328960e01b8152600481018490526024016107d7565b61091e838383600161143c565b6000828152600260205260408120546001600160a01b0390811690831615610fba57610fba818486611542565b6001600160a01b03811615610ff857610fd760008560008061143c565b6001600160a01b038116600090815260036020526040902080546000190190555b6001600160a01b03851615611027576001600160a01b0385166000908152600360205260409020805460010190555b60008481526002602052604080822080546001600160a01b0319166001600160a01b0389811691821790925591518793918516917fddf252ad1be2c89b69c2b068fc378daa952ba7f163c4a11628f55a4df523b3ef91a4949350505050565b610a5a81336115a6565b600061109c8383610c95565b61111c5760008381526008602090815260408083206001600160a01b03861684529091529020805460ff191660011790556110d43390565b6001600160a01b0316826001600160a01b0316847f2f8788117e7eff1d82e926ec794901d17c78024a50270940304540a733656f0d60405160405180910390a45060016106e1565b5060006106e1565b60006111308383610c95565b1561111c5760008381526008602090815260408083206001600160a01b0386168085529252808320805460ff1916905551339286917ff6391f5c32d9c69d2a47ea670b442974b53935d1edc7fd64eb21e047a839171b9190a45060016106e1565b6107ad8282604051806020016040528060008152506115df565b6001600160a01b0382166111dd57604051630b61174360e31b81526001600160a01b03831660048201526024016107d7565b6001600160a01b03838116600081815260056020908152604080832094871680845294825291829020805460ff191686151590811790915591519182527f17307eab39ab6107e8899845ad3d59bd9653f200f220920489ca2b5937696c31910160405180910390a3505050565b6001600160a01b0383163b1561136e57604051630a85bd0160e11b81526001600160a01b0384169063150b7a029061128c908890889087908790600401611d51565b6020604051808303816000875af19250505080156112c7575060408051601f3d908101601f191682019092526112c491810190611d8e565b60015b611330573d8080156112f5576040519150601f19603f3d011682016040523d82523d6000602084013e6112fa565b606091505b50805160000361132857604051633250574960e11b81526001600160a01b03851660048201526024016107d7565b805160208201fd5b6001600160e01b03198116630a85bd0160e11b1461136c57604051633250574960e11b81526001600160a01b03851660048201526024016107d7565b505b5050505050565b6060600a80546106f690611b44565b60606000611391836115f7565b600101905060008167ffffffffffffffff8111156113b1576113b1611969565b6040519080825280601f01601f1916602001820160405280156113db576020820181803683370190505b5090508181016020015b600019016f181899199a1a9b1b9c1cb0b131b232b360811b600a86061a8153600a85049450846113e557509392505050565b60006001600160e01b0319821663152a902d60e11b14806106e157506106e1826116cf565b808061145057506001600160a01b03821615155b1561151257600061146084610f47565b90506001600160a01b0383161580159061148c5750826001600160a01b0316816001600160a01b031614155b801561149f575061149d8184610ef4565b155b156114c85760405163a9fbf51f60e01b81526001600160a01b03841660048201526024016107d7565b81156115105783856001600160a01b0316826001600160a01b03167f8c5be1e5ebec7d5bd14f71427d1e84f3dd0314c0f7b2291e5b200ac8c7c3b92560405160405180910390a45b505b5050600090815260046020526040902080546001600160a01b0319166001600160a01b0392909216919091179055565b61154d83838361171f565b61091e576001600160a01b03831661157b57604051637e27328960e01b8152600481018290526024016107d7565b60405163177e802f60e01b81526001600160a01b0383166004820152602481018290526044016107d7565b6115b08282610c95565b6107ad5760405163e2517d3f60e01b81526001600160a01b0382166004820152602481018390526044016107d7565b6115e98383611785565b61091e33600085858561124a565b60008072184f03e93ff9f4daa797ed6e38ed64bf6a1f0160401b83106116365772184f03e93ff9f4daa797ed6e38ed64bf6a1f0160401b830492506040015b6d04ee2d6d415b85acef81000000008310611662576d04ee2d6d415b85acef8100000000830492506020015b662386f26fc10000831061168057662386f26fc10000830492506010015b6305f5e1008310611698576305f5e100830492506008015b61271083106116ac57612710830492506004015b606483106116be576064830492506002015b600a83106106e15760010192915050565b60006001600160e01b031982166380ac58cd60e01b148061170057506001600160e01b03198216635b5e139f60e01b145b806106e157506301ffc9a760e01b6001600160e01b03198316146106e1565b60006001600160a01b0383161580159061177d5750826001600160a01b0316846001600160a01b0316148061175957506117598484610ef4565b8061177d57506000828152600460205260409020546001600160a01b038481169116145b949350505050565b6001600160a01b0382166117af57604051633250574960e11b8152600060048201526024016107d7565b60006117bd83836000610f8d565b90506001600160a01b0381161561091e576040516339e3563760e11b8152600060048201526024016107d7565b6001600160e01b031981168114610a5a57600080fd5b60006020828403121561181257600080fd5b8135610ec8816117ea565b60005b83811015611838578181015183820152602001611820565b50506000910152565b6000815180845261185981602086016020860161181d565b601f01601f19169290920160200192915050565b602081526000610ec86020830184611841565b60006020828403121561189257600080fd5b5035919050565b80356001600160a01b03811681146118b057600080fd5b919050565b600080604083850312156118c857600080fd5b6118d183611899565b946020939093013593505050565b6000806000606084860312156118f457600080fd5b6118fd84611899565b925061190b60208501611899565b9150604084013590509250925092565b6000806040838503121561192e57600080fd5b50508035926020909101359150565b6000806040838503121561195057600080fd5b8235915061196060208401611899565b90509250929050565b634e487b7160e01b600052604160045260246000fd5b600067ffffffffffffffff8084111561199a5761199a611969565b604051601f8501601f19908116603f011681019082821181831017156119c2576119c2611969565b816040528093508581528686860111156119db57600080fd5b858560208301376000602087830101525050509392505050565b600060208284031215611a0757600080fd5b813567ffffffffffffffff811115611a1e57600080fd5b8201601f81018413611a2f57600080fd5b61177d8482356020840161197f565b600060208284031215611a5057600080fd5b610ec882611899565b8015158114610a5a57600080fd5b60008060408385031215611a7a57600080fd5b611a8383611899565b91506020830135611a9381611a59565b809150509250929050565b60008060008060808587031215611ab457600080fd5b611abd85611899565b9350611acb60208601611899565b925060408501359150606085013567ffffffffffffffff811115611aee57600080fd5b8501601f81018713611aff57600080fd5b611b0e8782356020840161197f565b91505092959194509250565b60008060408385031215611b2d57600080fd5b611b3683611899565b915061196060208401611899565b600181811c90821680611b5857607f821691505b602082108103611b7857634e487b7160e01b600052602260045260246000fd5b50919050565b634e487b7160e01b600052601160045260246000fd5b80820281158282048414176106e1576106e1611b7e565b600082611bc857634e487b7160e01b600052601260045260246000fd5b500490565b600060208284031215611bdf57600080fd5b5051919050565b600060208284031215611bf857600080fd5b8151610ec881611a59565b601f82111561091e57600081815260208120601f850160051c81016020861015611c2a5750805b601f850160051c820191505b8181101561136c57828155600101611c36565b815167ffffffffffffffff811115611c6357611c63611969565b611c7781611c718454611b44565b84611c03565b602080601f831160018114611cac5760008415611c945750858301515b600019600386901b1c1916600185901b17855561136c565b600085815260208120601f198616915b82811015611cdb57888601518255948401946001909101908401611cbc565b5085821015611cf95787850151600019600388901b60f8161c191681555b5050505050600190811b01905550565b600060018201611d1b57611d1b611b7e565b5060010190565b60008351611d3481846020880161181d565b835190830190611d4881836020880161181d565b01949350505050565b6001600160a01b0385811682528416602082015260408101839052608060608201819052600090611d8490830184611841565b9695505050505050565b600060208284031215611da057600080fd5b8151610ec8816117ea56fea264697066735822122069509ea68e91834db9165adbf23e60a30e6187d6a8fb651c00dfc66ab6c24dce64736f6c63430008140033",
  "linkReferences": {},
  "deployedLinkReferences": {}
}