{
  "_format": "hh-sol-artifact-1",
  "contractName": "AdvancedERC1155",
  "sourceName": "contracts/AdvancedERC1155.sol",
  "abi": [
    {
      "inputs": [
        {
          "internalType": "string",
          "name": "_name",
          "type": "string"
        },
        {
          "internalType": "string",
          "name": "uri",
          "type": "string"
        },
        {
          "internalType": "address",
          "name": "admin",
          "type": "address"
        },
        {
          "internalType": "bool",
          "name": "_mintingEnabled",
          "type": "bool"
        },
        {
          "internalType": "bool",
          "name": "_pausingEnabled",
          "type": "bool"
        },
        {
          "internalType": "uint256",
          "name": "_maxSupplyPerToken",
          "type": "uint256"
        }
      ],
      "stateMutability": "nonpayable",
      "type": "constructor"
    },
    {
      "inputs": [],
      "name": "AccessControlBadConfirmation",
      "type": "error"
    },
    {
      "inputs": [
        {
          "internalType": "address",
          "name": "account",
          "type": "address"
        },
        {
          "internalType": "bytes32",
          "name": "neededRole",
          "type": "bytes32"
        }
      ],
      "name": "AccessControlUnauthorizedAccount",
      "type": "error"
    },
    {
      "inputs": [
        {
          "internalType": "address",
          "name": "sender",
          "type": "address"
        },
        {
          "internalType": "uint256",
          "name": "balance",
          "type": "uint256"
        },
        {
          "internalType": "uint256",
          "name": "needed",
          "type": "uint256"
        },
        {
          "internalType": "uint256",
          "name": "tokenId",
          "type": "uint256"
        }
      ],
      "name": "ERC1155InsufficientBalance",
      "type": "error"
    },
    {
      "inputs": [
        {
          "internalType": "address",
          "name": "approver",
          "type": "address"
        }
      ],
      "name": "ERC1155InvalidApprover",
      "type": "error"
    },
    {
      "inputs": [
        {
          "internalType": "uint256",
          "name": "idsLength",
          "type": "uint256"
        },
        {
          "internalType": "uint256",
          "name": "valuesLength",
          "type": "uint256"
        }
      ],
      "name": "ERC1155InvalidArrayLength",
      "type": "error"
    },
    {
      "inputs": [
        {
          "internalType": "address",
          "name": "operator",
          "type": "address"
        }
      ],
      "name": "ERC1155InvalidOperator",
      "type": "error"
    },
    {
      "inputs": [
        {
          "internalType": "address",
          "name": "receiver",
          "type": "address"
        }
      ],
      "name": "ERC1155InvalidReceiver",
      "type": "error"
    },
    {
      "inputs": [
        {
          "internalType": "address",
          "name": "sender",
          "type": "address"
        }
      ],
      "name": "ERC1155InvalidSender",
      "type": "error"
    },
    {
      "inputs": [
        {
          "internalType": "address",
          "name": "operator",
          "type": "address"
        },
        {
          "internalType": "address",
          "name": "owner",
          "type": "address"
        }
      ],
      "name": "ERC1155MissingApprovalForAll",
      "type": "error"
    },
    {
      "inputs": [],
      "name": "EnforcedPause",
      "type": "error"
    },
    {
      "inputs": [],
      "name": "ExpectedPause",
      "type": "error"
    },
    {
      "inputs": [],
      "name": "MaxSupplyExceeded",
      "type": "error"
    },
    {
      "inputs": [],
      "name": "MintingDisabled",
      "type": "error"
    },
    {
      "inputs": [],
      "name": "PausingDisabled",
      "type": "error"
    },
    {
      "anonymous": false,
      "inputs": [
        {
          "indexed": true,
          "internalType": "address",
          "name": "account",
          "type": "address"
        },
        {
          "indexed": true,
          "internalType": "address",
          "name": "operator",
          "type": "address"
        },
        {
          "indexed": false,
          "internalType": "bool",
          "name": "approved",
          "type": "bool"
        }
      ],
      "name": "ApprovalForAll",
      "type": "event"
    },
    {
      "anonymous": false,
      "inputs": [
        {
          "indexed": false,
          "internalType": "address",
          "name": "account",
          "type": "address"
        }
      ],
      "name": "Paused",
      "type": "event"
    },
    {
      "anonymous": false,
      "inputs": [
        {
          "indexed": true,
          "internalType": "bytes32",
          "name": "role",
          "type": "bytes32"
        },
        {
          "indexed": true,
          "internalType": "bytes32",
          "name": "previousAdminRole",
          "type": "bytes32"
        },
        {
          "indexed": true,
          "internalType": "bytes32",
          "name": "newAdminRole",
          "type": "bytes32"
        }
      ],
      "name": "RoleAdminChanged",
      "type": "event"
    },
    {
      "anonymous": false,
      "inputs": [
        {
          "indexed": true,
          "internalType": "bytes32",
          "name": "role",
          "type": "bytes32"
        },
        {
          "indexed": true,
          "internalType": "address",
          "name": "account",
          "type": "address"
        },
        {
          "indexed": true,
          "internalType": "address",
          "name": "sender",
          "type": "address"
        }
      ],
      "name": "RoleGranted",
      "type": "event"
    },
    {
      "anonymous": false,
      "inputs": [
        {
          "indexed": true,
          "internalType": "bytes32",
          "name": "role",
          "type": "bytes32"
        },
        {
          "indexed": true,
          "internalType": "address",
          "name": "account",
          "type": "address"
        },
        {
          "indexed": true,
          "internalType": "address",
          "name": "sender",
          "type": "address"
        }
      ],
      "name": "RoleRevoked",
      "type": "event"
    },
    {
      "anonymous": false,
      "inputs": [
        {
          "indexed": true,
          "internalType": "address",
          "name": "operator",
          "type": "address"
        },
        {
          "indexed": true,
          "internalType": "address",
          "name": "from",
          "type": "address"
        },
        {
          "indexed": true,
          "internalType": "address",
          "name": "to",
          "type": "address"
        },
        {
          "indexed": false,
          "internalType": "uint256[]",
          "name": "ids",
          "type": "uint256[]"
        },
        {
          "indexed": false,
          "internalType": "uint256[]",
          "name": "values",
          "type": "uint256[]"
        }
      ],
      "name": "TransferBatch",
      "type": "event"
    },
    {
      "anonymous": false,
      "inputs": [
        {
          "indexed": true,
          "internalType": "address",
          "name": "operator",
          "type": "address"
        },
        {
          "indexed": true,
          "internalType": "address",
          "name": "from",
          "type": "address"
        },
        {
          "indexed": true,
          "internalType": "address",
          "name": "to",
          "type": "address"
        },
        {
          "indexed": false,
          "internalType": "uint256",
          "name": "id",
          "type": "uint256"
        },
        {
          "indexed": false,
          "internalType": "uint256",
          "name": "value",
          "type": "uint256"
        }
      ],
      "name": "TransferSingle",
      "type": "event"
    },
    {
      "anonymous": false,
      "inputs": [
        {
          "indexed": false,
          "internalType": "string",
          "name": "value",
          "type": "string"
        },
        {
          "indexed": true,
          "internalType": "uint256",
          "name": "id",
          "type": "uint256"
        }
      ],
      "name": "URI",
      "type": "event"
    },
    {
      "anonymous": false,
      "inputs": [
        {
          "indexed": false,
          "internalType": "address",
          "name": "account",
          "type": "address"
        }
      ],
      "name": "Unpaused",
      "type": "event"
    },
    {
      "inputs": [],
      "name": "DEFAULT_ADMIN_ROLE",
      "outputs": [
        {
          "internalType": "bytes32",
          "name": "",
          "type": "bytes32"
        }
      ],
      "stateMutability": "view",
      "type": "function"
    },
    {
      "inputs": [],
      "name": "METADATA_ROLE",
      "outputs": [
        {
          "internalType": "bytes32",
          "name": "",
          "type": "bytes32"
        }
      ],
      "stateMutability": "view",
      "type": "function"
    },
    {
      "inputs": [],
      "name": "MINTER_ROLE",
      "outputs": [
        {
          "internalType": "bytes32",
          "name": "",
          "type": "bytes32"
        }
      ],
      "stateMutability": "view",
      "type": "function"
    },
    {
      "inputs": [],
      "name": "PAUSER_ROLE",
      "outputs": [
        {
          "internalType": "bytes32",
          "name": "",
          "type": "bytes32"
        }
      ],
      "stateMutability": "view",
      "type": "function"
    },
    {
      "inputs": [
        {
          "internalType": "address",
          "name": "account",
          "type": "address"
        },
        {
          "internalType": "uint256",
          "name": "id",
          "type": "uint256"
        }
      ],
      "name": "balanceOf",
      "outputs": [
        {
          "internalType": "uint256",
          "name": "",
          "type": "uint256"
        }
      ],
      "stateMutability": "view",
      "type": "function"
    },
    {
      "inputs": [
        {
          "internalType": "address[]",
          "name": "accounts",
          "type": "address[]"
        },
        {
          "internalType": "uint256[]",
          "name": "ids",
          "type": "uint256[]"
        }
      ],
      "name": "balanceOfBatch",
      "outputs": [
        {
          "internalType": "uint256[]",
          "name": "",
          "type": "uint256[]"
        }
      ],
      "stateMutability": "view",
      "type": "function"
    },
    {
      "inputs": [
        {
          "internalType": "address",
          "name": "account",
          "type": "address"
        },
        {
          "internalType": "uint256",
          "name": "id",
          "type": "uint256"
        },
        {
          "internalType": "uint256",
          "name": "value",
          "type": "uint256"
        }
      ],
      "name": "burn",
      "outputs": [],
      "stateMutability": "nonpayable",
      "type": "function"
    },
    {
      "inputs": [
        {
          "internalType": "address",
          "name": "account",
          "type": "address"
        },
        {
          "internalType": "uint256[]",
          "name": "ids",
          "type": "uint256[]"
        },
        {
          "internalType": "uint256[]",
          "name": "values",
          "type": "uint256[]"
        }
      ],
      "name": "burnBatch",
      "outputs": [],
      "stateMutability": "nonpayable",
      "type": "function"
    },
    {
      "inputs": [
        {
          "internalType": "uint256",
          "name": "id",
          "type": "uint256"
        }
      ],
      "name": "exists",
      "outputs": [
        {
          "internalType": "bool",
          "name": "",
          "type": "bool"
        }
      ],
      "stateMutability": "view",
      "type": "function"
    },
    {
      "inputs": [
        {
          "internalType": "bytes32",
          "name": "role",
          "type": "bytes32"
        }
      ],
      "name": "getRoleAdmin",
      "outputs": [
        {
          "internalType": "bytes32",
          "name": "",
          "type": "bytes32"
        }
      ],
      "stateMutability": "view",
      "type": "function"
    },
    {
      "inputs": [
        {
          "internalType": "bytes32",
          "name": "role",
          "type": "bytes32"
        },
        {
          "internalType": "address",
          "name": "account",
          "type": "address"
        }
      ],
      "name": "grantRole",
      "outputs": [],
      "stateMutability": "nonpayable",
      "type": "function"
    },
    {
      "inputs": [
        {
          "internalType": "bytes32",
          "name": "role",
          "type": "bytes32"
        },
        {
          "internalType": "address",
          "name": "account",
          "type": "address"
        }
      ],
      "name": "hasRole",
      "outputs": [
        {
          "internalType": "bool",
          "name": "",
          "type": "bool"
        }
      ],
      "stateMutability": "view",
      "type": "function"
    },
    {
      "inputs": [
        {
          "internalType": "address",
          "name": "account",
          "type": "address"
        },
        {
          "internalType": "address",
          "name": "operator",
          "type": "address"
        }
      ],
      "name": "isApprovedForAll",
      "outputs": [
        {
          "internalType": "bool",
          "name": "",
          "type": "bool"
        }
      ],
      "stateMutability": "view",
      "type": "function"
    },
    {
      "inputs": [],
      "name": "maxSupplyPerToken",
      "outputs": [
        {
          "internalType": "uint256",
          "name": "",
          "type": "uint256"
        }
      ],
      "stateMutability": "view",
      "type": "function"
    },
    {
      "inputs": [
        {
          "internalType": "address",
          "name": "to",
          "type": "address"
        },
        {
          "internalType": "uint256",
          "name": "id",
          "type": "uint256"
        },
        {
          "internalType": "uint256",
          "name": "amount",
          "type": "uint256"
        },
        {
          "internalType": "bytes",
          "name": "data",
          "type": "bytes"
        }
      ],
      "name": "mint",
      "outputs": [],
      "stateMutability": "nonpayable",
      "type": "function"
    },
    {
      "inputs": [
        {
          "internalType": "address",
          "name": "to",
          "type": "address"
        },
        {
          "internalType": "uint256[]",
          "name": "ids",
          "type": "uint256[]"
        },
        {
          "internalType": "uint256[]",
          "name": "amounts",
          "type": "uint256[]"
        },
        {
          "internalType": "bytes",
          "name": "data",
          "type": "bytes"
        }
      ],
      "name": "mintBatch",
      "outputs": [],
      "stateMutability": "nonpayable",
      "type": "function"
    },
    {
      "inputs": [],
      "name": "mintingEnabled",
      "outputs": [
        {
          "internalType": "bool",
          "name": "",
          "type": "bool"
        }
      ],
      "stateMutability": "view",
      "type": "function"
    },
    {
      "inputs": [],
      "name": "name",
      "outputs": [
        {
          "internalType": "string",
          "name": "",
          "type": "string"
        }
      ],
      "stateMutability": "view",
      "type": "function"
    },
    {
      "inputs": [],
      "name": "pause",
      "outputs": [],
      "stateMutability": "nonpayable",
      "type": "function"
    },
    {
      "inputs": [],
      "name": "paused",
      "outputs": [
        {
          "internalType": "bool",
          "name": "",
          "type": "bool"
        }
      ],
      "stateMutability": "view",
      "type": "function"
    },
    {
      "inputs": [],
      "name": "pausingEnabled",
      "outputs": [
        {
          "internalType": "bool",
          "name": "",
          "type": "bool"
        }
      ],
      "stateMutability": "view",
      "type": "function"
    },
    {
      "inputs": [
        {
          "internalType": "bytes32",
          "name": "role",
          "type": "bytes32"
        },
        {
          "internalType": "address",
          "name": "callerConfirmation",
          "type": "address"
        }
      ],
      "name": "renounceRole",
      "outputs": [],
      "stateMutability": "nonpayable",
      "type": "function"
    },
    {
      "inputs": [
        {
          "internalType": "bytes32",
          "name": "role",
          "type": "bytes32"
        },
        {
          "internalType": "address",
          "name": "account",
          "type": "address"
        }
      ],
      "name": "revokeRole",
      "outputs": [],
      "stateMutability": "nonpayable",
      "type": "function"
    },
    {
      "inputs": [
        {
          "internalType": "address",
          "name": "from",
          "type": "address"
        },
        {
          "internalType": "address",
          "name": "to",
          "type": "address"
        },
        {
          "internalType": "uint256[]",
          "name": "ids",
          "type": "uint256[]"
        },
        {
          "internalType": "uint256[]",
          "name": "values",
          "type": "uint256[]"
        },
        {
          "internalType": "bytes",
          "name": "data",
          "type": "bytes"
        }
      ],
      "name": "safeBatchTransferFrom",
      "outputs": [],
      "stateMutability": "nonpayable",
      "type": "function"
    },
    {
      "inputs": [
        {
          "internalType": "address",
          "name": "from",
          "type": "address"
        },
        {
          "internalType": "address",
          "name": "to",
          "type": "address"
        },
        {
          "internalType": "uint256",
          "name": "id",
          "type": "uint256"
        },
        {
          "internalType": "uint256",
          "name": "value",
          "type": "uint256"
        },
        {
          "internalType": "bytes",
          "name": "data",
          "type": "bytes"
        }
      ],
      "name": "safeTransferFrom",
      "outputs": [],
      "stateMutability": "nonpayable",
      "type": "function"
    },
    {
      "inputs": [
        {
          "internalType": "address",
          "name": "operator",
          "type": "address"
        },
        {
          "internalType": "bool",
          "name": "approved",
          "type": "bool"
        }
      ],
      "name": "setApprovalForAll",
      "outputs": [],
      "stateMutability": "nonpayable",
      "type": "function"
    },
    {
      "inputs": [
        {
          "internalType": "string",
          "name": "newuri",
          "type": "string"
        }
      ],
      "name": "setURI",
      "outputs": [],
      "stateMutability": "nonpayable",
      "type": "function"
    },
    {
      "inputs": [
        {
          "internalType": "bytes4",
          "name": "interfaceId",
          "type": "bytes4"
        }
      ],
      "name": "supportsInterface",
      "outputs": [
        {
          "internalType": "bool",
          "name": "",
          "type": "bool"
        }
      ],
      "stateMutability": "view",
      "type": "function"
    },
    {
      "inputs": [],
      "name": "totalSupply",
      "outputs": [
        {
          "internalType": "uint256",
          "name": "",
          "type": "uint256"
        }
      ],
      "stateMutability": "view",
      "type": "function"
    },
    {
      "inputs": [
        {
          "internalType": "uint256",
          "name": "id",
          "type": "uint256"
        }
      ],
      "name": "totalSupply",
      "outputs": [
        {
          "internalType": "uint256",
          "name": "",
          "type": "uint256"
        }
      ],
      "stateMutability": "view",
      "type": "function"
    },
    {
      "inputs": [],
      "name": "unpause",
      "outputs": [],
      "stateMutability": "nonpayable",
      "type": "function"
    },
    {
      "inputs": [
        {
          "internalType": "uint256",
          "name": "",
          "type": "uint256"
        }
      ],
      "name": "uri",
      "outputs": [
        {
          "internalType": "string",
          "name": "",
          "type": "string"
        }
      ],
      "stateMutability": "view",
      "type": "function"
    }
  ],
  "bytecode": "0x60e06040523480156200001157600080fd5b5060405162002695380380620026958339810160408190526200003491620002b2565b84620000408162000112565b5060076200004f8782620003fa565b5082151560a05281151560c05260808190526200006e60008562000124565b508215620000a457620000a27f9f2df0fed2c77648de5860a4cc508cd0818c85b8b8a1ab4ceeef8d981c8956a68562000124565b505b8115620000d957620000d77f65d7a28e3265b37a6474929f336521b332c1681b933f6cb9f3376673440d862a8562000124565b505b620001057f6bd6b5318a46e5fff572d5e4258a20774aab40cc35ac7680654b9081fcc82f808562000124565b50505050505050620004c6565b6002620001208282620003fa565b5050565b60008281526003602090815260408083206001600160a01b038516845290915281205460ff16620001cd5760008381526003602090815260408083206001600160a01b03861684529091529020805460ff19166001179055620001843390565b6001600160a01b0316826001600160a01b0316847f2f8788117e7eff1d82e926ec794901d17c78024a50270940304540a733656f0d60405160405180910390a4506001620001d1565b5060005b92915050565b634e487b7160e01b600052604160045260246000fd5b600082601f830112620001ff57600080fd5b81516001600160401b03808211156200021c576200021c620001d7565b604051601f8301601f19908116603f01168101908282118183101715620002475762000247620001d7565b816040528381526020925086838588010111156200026457600080fd5b600091505b8382101562000288578582018301518183018401529082019062000269565b600093810190920192909252949350505050565b80518015158114620002ad57600080fd5b919050565b60008060008060008060c08789031215620002cc57600080fd5b86516001600160401b0380821115620002e457600080fd5b620002f28a838b01620001ed565b975060208901519150808211156200030957600080fd5b506200031889828a01620001ed565b604089015190965090506001600160a01b03811681146200033857600080fd5b935062000348606088016200029c565b925062000358608088016200029c565b915060a087015190509295509295509295565b600181811c908216806200038057607f821691505b602082108103620003a157634e487b7160e01b600052602260045260246000fd5b50919050565b601f821115620003f557600081815260208120601f850160051c81016020861015620003d05750805b601f850160051c820191505b81811015620003f157828155600101620003dc565b5050505b505050565b81516001600160401b03811115620004165762000416620001d7565b6200042e816200042784546200036b565b84620003a7565b602080601f8311600181146200046657600084156200044d5750858301515b600019600386901b1c1916600185901b178555620003f1565b600085815260208120601f198616915b82811015620004975788860151825594840194600190910190840162000476565b5085821015620004b65787850151600019600388901b60f8161c191681555b5050505050600190811b01905550565b60805160a05160c0516121676200052e600039600081816103da015281816108d30152610b7b015260008181610401015281816106b00152610a7a01526000818161031d015281816106ee0152818161072001528181610aba0152610ae301526121676000f3fe608060405234801561001057600080fd5b50600436106101ef5760003560e01c80635c975abb1161010f578063a22cb465116100a2578063e63ab1e911610071578063e63ab1e914610498578063e985e9c5146104bf578063f242432a146104d2578063f5298aca146104e557600080fd5b8063a22cb4651461042b578063bd85b0391461043e578063d53913931461045e578063d547741f1461048557600080fd5b806391d14854116100de57806391d14854146103c2578063962c02fd146103d55780639fd6db12146103fc578063a217fddf1461042357600080fd5b80635c975abb146103895780636b20c45414610394578063731133e9146103a75780638456cb59146103ba57600080fd5b80632eb2c2d6116101875780633937b5b4116101565780633937b5b4146103185780633f4ba83a1461033f5780634e1273f4146103475780634f558e791461036757600080fd5b80632eb2c2d6146102b85780632f2ff15d146102cb57806336568abe146102de57806338841782146102f157600080fd5b80630e89341c116101c35780630e89341c1461026757806318160ddd1461027a5780631f7fdffa14610282578063248a9ca31461029557600080fd5b8062fdd58e146101f457806301ffc9a71461021a57806302fe53051461023d57806306fdde0314610252575b600080fd5b6102076102023660046117f2565b6104f8565b6040519081526020015b60405180910390f35b61022d610228366004611832565b610520565b6040519015158152602001610211565b61025061024b3660046118f5565b61052b565b005b61025a610562565b604051610211919061198c565b61025a61027536600461199f565b6105f0565b600654610207565b610250610290366004611a67565b610684565b6102076102a336600461199f565b60009081526003602052604090206001015490565b6102506102c6366004611b00565b6107d8565b6102506102d9366004611baa565b610844565b6102506102ec366004611baa565b61086f565b6102077f6bd6b5318a46e5fff572d5e4258a20774aab40cc35ac7680654b9081fcc82f8081565b6102077f000000000000000000000000000000000000000000000000000000000000000081565b6102506108a7565b61035a610355366004611bd6565b61091a565b6040516102119190611cd1565b61022d61037536600461199f565b600090815260056020526040902054151590565b60045460ff1661022d565b6102506103a2366004611ce4565b6109ef565b6102506103b5366004611d58565b610a4e565b610250610b4f565b61022d6103d0366004611baa565b610bbf565b61022d7f000000000000000000000000000000000000000000000000000000000000000081565b61022d7f000000000000000000000000000000000000000000000000000000000000000081565b610207600081565b610250610439366004611dad565b610bea565b61020761044c36600461199f565b60009081526005602052604090205490565b6102077f9f2df0fed2c77648de5860a4cc508cd0818c85b8b8a1ab4ceeef8d981c8956a681565b610250610493366004611baa565b610bf5565b6102077f65d7a28e3265b37a6474929f336521b332c1681b933f6cb9f3376673440d862a81565b61022d6104cd366004611de9565b610c1a565b6102506104e0366004611e13565b610c48565b6102506104f3366004611e78565b610ca7565b6000818152602081815260408083206001600160a01b03861684529091529020545b92915050565b600061051a82610cdd565b7f6bd6b5318a46e5fff572d5e4258a20774aab40cc35ac7680654b9081fcc82f8061055581610d02565b61055e82610d0c565b5050565b6007805461056f90611eab565b80601f016020809104026020016040519081016040528092919081815260200182805461059b90611eab565b80156105e85780601f106105bd576101008083540402835291602001916105e8565b820191906000526020600020905b8154815290600101906020018083116105cb57829003601f168201915b505050505081565b6060600280546105ff90611eab565b80601f016020809104026020016040519081016040528092919081815260200182805461062b90611eab565b80156106785780601f1061064d57610100808354040283529160200191610678565b820191906000526020600020905b81548152906001019060200180831161065b57829003601f168201915b50505050509050919050565b7f9f2df0fed2c77648de5860a4cc508cd0818c85b8b8a1ab4ceeef8d981c8956a66106ae81610d02565b7f00000000000000000000000000000000000000000000000000000000000000006106ec5760405163af79b43760e01b815260040160405180910390fd5b7f0000000000000000000000000000000000000000000000000000000000000000156107c55760005b84518110156107c3577f000000000000000000000000000000000000000000000000000000000000000084828151811061075157610751611ee5565b602002602001015161078887848151811061076e5761076e611ee5565b602002602001015160009081526005602052604090205490565b6107929190611f11565b11156107b157604051638a164f6360e01b815260040160405180910390fd5b806107bb81611f24565b915050610715565b505b6107d185858585610d18565b5050505050565b336001600160a01b03861681148015906107f957506107f78682610c1a565b155b1561082f5760405163711bec9160e11b81526001600160a01b038083166004830152871660248201526044015b60405180910390fd5b61083c8686868686610d50565b505050505050565b60008281526003602052604090206001015461085f81610d02565b6108698383610db0565b50505050565b6001600160a01b03811633146108985760405163334bd91960e11b815260040160405180910390fd5b6108a28282610e44565b505050565b7f65d7a28e3265b37a6474929f336521b332c1681b933f6cb9f3376673440d862a6108d181610d02565b7f000000000000000000000000000000000000000000000000000000000000000061090f57604051631135a75960e21b815260040160405180910390fd5b610917610eb1565b50565b6060815183511461094b5781518351604051635b05999160e01b815260048101929092526024820152604401610826565b6000835167ffffffffffffffff81111561096757610967611856565b604051908082528060200260200182016040528015610990578160200160208202803683370190505b50905060005b84518110156109e7576020808202860101516109ba906020808402870101516104f8565b8282815181106109cc576109cc611ee5565b60209081029190910101526109e081611f24565b9050610996565b509392505050565b6001600160a01b0383163314801590610a0f5750610a0d8333610c1a565b155b15610a4357335b60405163711bec9160e11b81526001600160a01b0391821660048201529084166024820152604401610826565b6108a2838383610f03565b7f9f2df0fed2c77648de5860a4cc508cd0818c85b8b8a1ab4ceeef8d981c8956a6610a7881610d02565b7f0000000000000000000000000000000000000000000000000000000000000000610ab65760405163af79b43760e01b815260040160405180910390fd5b60007f0000000000000000000000000000000000000000000000000000000000000000118015610b2557507f000000000000000000000000000000000000000000000000000000000000000083610b198660009081526005602052604090205490565b610b239190611f11565b115b15610b4357604051638a164f6360e01b815260040160405180910390fd5b6107d185858585610f49565b7f65d7a28e3265b37a6474929f336521b332c1681b933f6cb9f3376673440d862a610b7981610d02565b7f0000000000000000000000000000000000000000000000000000000000000000610bb757604051631135a75960e21b815260040160405180910390fd5b610917610fa6565b60009182526003602090815260408084206001600160a01b0393909316845291905290205460ff1690565b61055e338383610fe3565b600082815260036020526040902060010154610c1081610d02565b6108698383610e44565b6001600160a01b03918216600090815260016020908152604080832093909416825291909152205460ff1690565b336001600160a01b0386168114801590610c695750610c678682610c1a565b155b15610c9a5760405163711bec9160e11b81526001600160a01b03808316600483015287166024820152604401610826565b61083c8686868686611079565b6001600160a01b0383163314801590610cc75750610cc58333610c1a565b155b15610cd25733610a16565b6108a2838383611107565b60006001600160e01b03198216637965db0b60e01b148061051a575061051a8261116f565b61091781336111bf565b600261055e8282611f83565b6001600160a01b038416610d4257604051632bfa23e760e11b815260006004820152602401610826565b6108696000858585856111f8565b6001600160a01b038416610d7a57604051632bfa23e760e11b815260006004820152602401610826565b6001600160a01b038516610da357604051626a0d4560e21b815260006004820152602401610826565b6107d185858585856111f8565b6000610dbc8383610bbf565b610e3c5760008381526003602090815260408083206001600160a01b03861684529091529020805460ff19166001179055610df43390565b6001600160a01b0316826001600160a01b0316847f2f8788117e7eff1d82e926ec794901d17c78024a50270940304540a733656f0d60405160405180910390a450600161051a565b50600061051a565b6000610e508383610bbf565b15610e3c5760008381526003602090815260408083206001600160a01b0386168085529252808320805460ff1916905551339286917ff6391f5c32d9c69d2a47ea670b442974b53935d1edc7fd64eb21e047a839171b9190a450600161051a565b610eb961124b565b6004805460ff191690557f5db9ee0a495bf2e6ff9c91a7834c1ba4fdd244a5e8aa4e537bd38aeae4b073aa335b6040516001600160a01b03909116815260200160405180910390a1565b6001600160a01b038316610f2c57604051626a0d4560e21b815260006004820152602401610826565b6108a28360008484604051806020016040528060008152506111f8565b6001600160a01b038416610f7357604051632bfa23e760e11b815260006004820152602401610826565b6040805160018082526020820186905281830190815260608201859052608082019092529061083c6000878484876111f8565b610fae611270565b6004805460ff191660011790557f62e78cea01bee320cd4e420270b5ea74000d11b0c9f74754ebdbfc544b05a258610ee63390565b6001600160a01b03821661100c5760405162ced3e160e81b815260006004820152602401610826565b6001600160a01b03838116600081815260016020908152604080832094871680845294825291829020805460ff191686151590811790915591519182527f17307eab39ab6107e8899845ad3d59bd9653f200f220920489ca2b5937696c31910160405180910390a3505050565b6001600160a01b0384166110a357604051632bfa23e760e11b815260006004820152602401610826565b6001600160a01b0385166110cc57604051626a0d4560e21b815260006004820152602401610826565b604080516001808252602082018690528183019081526060820185905260808201909252906110fe87878484876111f8565b50505050505050565b6001600160a01b03831661113057604051626a0d4560e21b815260006004820152602401610826565b604080516001808252602082018590528183019081526060820184905260a082019092526000608082018181529192916107d1918791859085906111f8565b60006001600160e01b03198216636cdb3d1360e11b14806111a057506001600160e01b031982166303a24d0760e21b145b8061051a57506301ffc9a760e01b6001600160e01b031983161461051a565b6111c98282610bbf565b61055e5760405163e2517d3f60e01b81526001600160a01b038216600482015260248101839052604401610826565b61120485858585611294565b6001600160a01b038416156107d1578251339060010361123d57602084810151908401516112368389898585896112a0565b505061083c565b61083c8187878787876113c4565b60045460ff1661126e57604051638dfc202b60e01b815260040160405180910390fd5b565b60045460ff161561126e5760405163d93c066560e01b815260040160405180910390fd5b610869848484846114ad565b6001600160a01b0384163b1561083c5760405163f23a6e6160e01b81526001600160a01b0385169063f23a6e61906112e49089908990889088908890600401612043565b6020604051808303816000875af192505050801561131f575060408051601f3d908101601f1916820190925261131c91810190612088565b60015b611388573d80801561134d576040519150601f19603f3d011682016040523d82523d6000602084013e611352565b606091505b50805160000361138057604051632bfa23e760e11b81526001600160a01b0386166004820152602401610826565b805160208201fd5b6001600160e01b0319811663f23a6e6160e01b146110fe57604051632bfa23e760e11b81526001600160a01b0386166004820152602401610826565b6001600160a01b0384163b1561083c5760405163bc197c8160e01b81526001600160a01b0385169063bc197c819061140890899089908890889088906004016120a5565b6020604051808303816000875af1925050508015611443575060408051601f3d908101601f1916820190925261144091810190612088565b60015b611471573d80801561134d576040519150601f19603f3d011682016040523d82523d6000602084013e611352565b6001600160e01b0319811663bc197c8160e01b146110fe57604051632bfa23e760e11b81526001600160a01b0386166004820152602401610826565b6114b9848484846115aa565b6001600160a01b038416611542576000805b83518110156115285760208181028481018201519086018201516000908152600590925260408220805491928392611504908490611f11565b9091555061151490508184611f11565b9250508061152190611f24565b90506114cb565b50806006600082825461153b9190611f11565b9091555050505b6001600160a01b038316610869576000805b835181101561159957602081810284810182015190860182015160009081526005909252604090912080548290039055919091019061159281611f24565b9050611554565b506006805491909103905550505050565b6115b2611270565b6108698484848480518251146115e85781518151604051635b05999160e01b815260048101929092526024820152604401610826565b3360005b83518110156116f7576020818102858101820151908501909101516001600160a01b0388161561169f576000828152602081815260408083206001600160a01b038c16845290915290205481811015611678576040516303dee4c560e01b81526001600160a01b038a166004820152602481018290526044810183905260648101849052608401610826565b6000838152602081815260408083206001600160a01b038d16845290915290209082900390555b6001600160a01b038716156116e4576000828152602081815260408083206001600160a01b038b168452909152812080548392906116de908490611f11565b90915550505b5050806116f090611f24565b90506115ec565b5082516001036117785760208301516000906020840151909150856001600160a01b0316876001600160a01b0316846001600160a01b03167fc3d58168c5ae7397731d063d5bbf3d657854427343f4c083240f7aacaa2d0f628585604051611769929190918252602082015260400190565b60405180910390a450506107d1565b836001600160a01b0316856001600160a01b0316826001600160a01b03167f4a39dc06d4c0dbc64b70af90fd698a233a518aa5d07e595d983b8c0526c8f7fb86866040516117c7929190612103565b60405180910390a45050505050565b80356001600160a01b03811681146117ed57600080fd5b919050565b6000806040838503121561180557600080fd5b61180e836117d6565b946020939093013593505050565b6001600160e01b03198116811461091757600080fd5b60006020828403121561184457600080fd5b813561184f8161181c565b9392505050565b634e487b7160e01b600052604160045260246000fd5b604051601f8201601f1916810167ffffffffffffffff8111828210171561189557611895611856565b604052919050565b600067ffffffffffffffff8311156118b7576118b7611856565b6118ca601f8401601f191660200161186c565b90508281528383830111156118de57600080fd5b828260208301376000602084830101529392505050565b60006020828403121561190757600080fd5b813567ffffffffffffffff81111561191e57600080fd5b8201601f8101841361192f57600080fd5b61193e8482356020840161189d565b949350505050565b6000815180845260005b8181101561196c57602081850181015186830182015201611950565b506000602082860101526020601f19601f83011685010191505092915050565b60208152600061184f6020830184611946565b6000602082840312156119b157600080fd5b5035919050565b600067ffffffffffffffff8211156119d2576119d2611856565b5060051b60200190565b600082601f8301126119ed57600080fd5b81356020611a026119fd836119b8565b61186c565b82815260059290921b84018101918181019086841115611a2157600080fd5b8286015b84811015611a3c5780358352918301918301611a25565b509695505050505050565b600082601f830112611a5857600080fd5b61184f8383356020850161189d565b60008060008060808587031215611a7d57600080fd5b611a86856117d6565b9350602085013567ffffffffffffffff80821115611aa357600080fd5b611aaf888389016119dc565b94506040870135915080821115611ac557600080fd5b611ad1888389016119dc565b93506060870135915080821115611ae757600080fd5b50611af487828801611a47565b91505092959194509250565b600080600080600060a08688031215611b1857600080fd5b611b21866117d6565b9450611b2f602087016117d6565b9350604086013567ffffffffffffffff80821115611b4c57600080fd5b611b5889838a016119dc565b94506060880135915080821115611b6e57600080fd5b611b7a89838a016119dc565b93506080880135915080821115611b9057600080fd5b50611b9d88828901611a47565b9150509295509295909350565b60008060408385031215611bbd57600080fd5b82359150611bcd602084016117d6565b90509250929050565b60008060408385031215611be957600080fd5b823567ffffffffffffffff80821115611c0157600080fd5b818501915085601f830112611c1557600080fd5b81356020611c256119fd836119b8565b82815260059290921b84018101918181019089841115611c4457600080fd5b948201945b83861015611c6957611c5a866117d6565b82529482019490820190611c49565b96505086013592505080821115611c7f57600080fd5b50611c8c858286016119dc565b9150509250929050565b600081518084526020808501945080840160005b83811015611cc657815187529582019590820190600101611caa565b509495945050505050565b60208152600061184f6020830184611c96565b600080600060608486031215611cf957600080fd5b611d02846117d6565b9250602084013567ffffffffffffffff80821115611d1f57600080fd5b611d2b878388016119dc565b93506040860135915080821115611d4157600080fd5b50611d4e868287016119dc565b9150509250925092565b60008060008060808587031215611d6e57600080fd5b611d77856117d6565b93506020850135925060408501359150606085013567ffffffffffffffff811115611da157600080fd5b611af487828801611a47565b60008060408385031215611dc057600080fd5b611dc9836117d6565b915060208301358015158114611dde57600080fd5b809150509250929050565b60008060408385031215611dfc57600080fd5b611e05836117d6565b9150611bcd602084016117d6565b600080600080600060a08688031215611e2b57600080fd5b611e34866117d6565b9450611e42602087016117d6565b93506040860135925060608601359150608086013567ffffffffffffffff811115611e6c57600080fd5b611b9d88828901611a47565b600080600060608486031215611e8d57600080fd5b611e96846117d6565b95602085013595506040909401359392505050565b600181811c90821680611ebf57607f821691505b602082108103611edf57634e487b7160e01b600052602260045260246000fd5b50919050565b634e487b7160e01b600052603260045260246000fd5b634e487b7160e01b600052601160045260246000fd5b8082018082111561051a5761051a611efb565b600060018201611f3657611f36611efb565b5060010190565b601f8211156108a257600081815260208120601f850160051c81016020861015611f645750805b601f850160051c820191505b8181101561083c57828155600101611f70565b815167ffffffffffffffff811115611f9d57611f9d611856565b611fb181611fab8454611eab565b84611f3d565b602080601f831160018114611fe65760008415611fce5750858301515b600019600386901b1c1916600185901b17855561083c565b600085815260208120601f198616915b8281101561201557888601518255948401946001909101908401611ff6565b50858210156120335787850151600019600388901b60f8161c191681555b5050505050600190811b01905550565b6001600160a01b03868116825285166020820152604081018490526060810183905260a06080820181905260009061207d90830184611946565b979650505050505050565b60006020828403121561209a57600080fd5b815161184f8161181c565b6001600160a01b0386811682528516602082015260a0604082018190526000906120d190830186611c96565b82810360608401526120e38186611c96565b905082810360808401526120f78185611946565b98975050505050505050565b6040815260006121166040830185611c96565b82810360208401526121288185611c96565b9594505050505056fea26469706673582212204d8ccb03e25ee35b3032325fcba7009890d2a744d396615934681e0a4f819e3f64736f6c63430008140033",
  "linkReferences": {},
  "deployedLinkReferences": {}
}