{
  "_format": "hh-sol-artifact-1",
  "contractName": "ConfigurableERC1155",
  "sourceName": "contracts/ConfigurableERC1155.sol",
  "abi": [
    {
      "inputs": [
        {
          "internalType": "string",
          "name": "_name",
          "type": "string"
        },
        {
          "internalType": "string",
          "name": "_uri",
          "type": "string"
        },
        {
          "internalType": "address",
          "name": "_owner",
          "type": "address"
        },
        {
          "internalType": "bool",
          "name": "_mintable",
          "type": "bool"
        },
        {
          "internalType": "bool",
          "name": "_burnable",
          "type": "bool"
        },
        {
          "internalType": "bool",
          "name": "_pausable",
          "type": "bool"
        },
        {
          "internalType": "enum ConfigurableERC1155.MintAccessMode",
          "name": "_mintAccessMode",
          "type": "uint8"
        },
        {
          "internalType": "uint256",
          "name": "_walletMintLimit",
          "type": "uint256"
        },
        {
          "internalType": "uint256",
          "name": "_maxSupplyPerToken",
          "type": "uint256"
        }
      ],
      "stateMutability": "nonpayable",
      "type": "constructor"
    },
    {
      "inputs": [],
      "name": "BurningDisabled",
      "type": "error"
    },
    {
      "inputs": [
        {
          "internalType": "address",
          "name": "sender",
          "type": "address"
        },
        {
          "internalType": "uint256",
          "name": "balance",
          "type": "uint256"
        },
        {
          "internalType": "uint256",
          "name": "needed",
          "type": "uint256"
        },
        {
          "internalType": "uint256",
          "name": "tokenId",
          "type": "uint256"
        }
      ],
      "name": "ERC1155InsufficientBalance",
      "type": "error"
    },
    {
      "inputs": [
        {
          "internalType": "address",
          "name": "approver",
          "type": "address"
        }
      ],
      "name": "ERC1155InvalidApprover",
      "type": "error"
    },
    {
      "inputs": [
        {
          "internalType": "uint256",
          "name": "idsLength",
          "type": "uint256"
        },
        {
          "internalType": "uint256",
          "name": "valuesLength",
          "type": "uint256"
        }
      ],
      "name": "ERC1155InvalidArrayLength",
      "type": "error"
    },
    {
      "inputs": [
        {
          "internalType": "address",
          "name": "operator",
          "type": "address"
        }
      ],
      "name": "ERC1155InvalidOperator",
      "type": "error"
    },
    {
      "inputs": [
        {
          "internalType": "address",
          "name": "receiver",
          "type": "address"
        }
      ],
      "name": "ERC1155InvalidReceiver",
      "type": "error"
    },
    {
      "inputs": [
        {
          "internalType": "address",
          "name": "sender",
          "type": "address"
        }
      ],
      "name": "ERC1155InvalidSender",
      "type": "error"
    },
    {
      "inputs": [
        {
          "internalType": "address",
          "name": "operator",
          "type": "address"
        },
        {
          "internalType": "address",
          "name": "owner",
          "type": "address"
        }
      ],
      "name": "ERC1155MissingApprovalForAll",
      "type": "error"
    },
    {
      "inputs": [],
      "name": "EnforcedPause",
      "type": "error"
    },
    {
      "inputs": [],
      "name": "ExpectedPause",
      "type": "error"
    },
    {
      "inputs": [],
      "name": "InvalidAmount",
      "type": "error"
    },
    {
      "inputs": [],
      "name": "MaxSupplyExceeded",
      "type": "error"
    },
    {
      "inputs": [],
      "name": "MintingDisabled",
      "type": "error"
    },
    {
      "inputs": [
        {
          "internalType": "address",
          "name": "owner",
          "type": "address"
        }
      ],
      "name": "OwnableInvalidOwner",
      "type": "error"
    },
    {
      "inputs": [
        {
          "internalType": "address",
          "name": "account",
          "type": "address"
        }
      ],
      "name": "OwnableUnauthorizedAccount",
      "type": "error"
    },
    {
      "inputs": [],
      "name": "PausingDisabled",
      "type": "error"
    },
    {
      "inputs": [],
      "name": "UnauthorizedMinter",
      "type": "error"
    },
    {
      "inputs": [],
      "name": "WalletLimitExceeded",
      "type": "error"
    },
    {
      "anonymous": false,
      "inputs": [
        {
          "indexed": true,
          "internalType": "address",
          "name": "account",
          "type": "address"
        },
        {
          "indexed": true,
          "internalType": "address",
          "name": "operator",
          "type": "address"
        },
        {
          "indexed": false,
          "internalType": "bool",
          "name": "approved",
          "type": "bool"
        }
      ],
      "name": "ApprovalForAll",
      "type": "event"
    },
    {
      "anonymous": false,
      "inputs": [
        {
          "indexed": true,
          "internalType": "uint256",
          "name": "tokenId",
          "type": "uint256"
        },
        {
          "indexed": false,
          "internalType": "uint256",
          "name": "maxSupply",
          "type": "uint256"
        }
      ],
      "name": "MaxSupplySet",
      "type": "event"
    },
    {
      "anonymous": false,
      "inputs": [
        {
          "indexed": true,
          "internalType": "address",
          "name": "previousOwner",
          "type": "address"
        },
        {
          "indexed": true,
          "internalType": "address",
          "name": "newOwner",
          "type": "address"
        }
      ],
      "name": "OwnershipTransferred",
      "type": "event"
    },
    {
      "anonymous": false,
      "inputs": [
        {
          "indexed": false,
          "internalType": "address",
          "name": "account",
          "type": "address"
        }
      ],
      "name": "Paused",
      "type": "event"
    },
    {
      "anonymous": false,
      "inputs": [
        {
          "indexed": true,
          "internalType": "address",
          "name": "to",
          "type": "address"
        },
        {
          "indexed": false,
          "internalType": "uint256[]",
          "name": "tokenIds",
          "type": "uint256[]"
        },
        {
          "indexed": false,
          "internalType": "uint256[]",
          "name": "amounts",
          "type": "uint256[]"
        }
      ],
      "name": "TokenBatchMinted",
      "type": "event"
    },
    {
      "anonymous": false,
      "inputs": [
        {
          "indexed": true,
          "internalType": "address",
          "name": "to",
          "type": "address"
        },
        {
          "indexed": true,
          "internalType": "uint256",
          "name": "tokenId",
          "type": "uint256"
        },
        {
          "indexed": false,
          "internalType": "uint256",
          "name": "amount",
          "type": "uint256"
        }
      ],
      "name": "TokenMinted",
      "type": "event"
    },
    {
      "anonymous": false,
      "inputs": [
        {
          "indexed": true,
          "internalType": "address",
          "name": "operator",
          "type": "address"
        },
        {
          "indexed": true,
          "internalType": "address",
          "name": "from",
          "type": "address"
        },
        {
          "indexed": true,
          "internalType": "address",
          "name": "to",
          "type": "address"
        },
        {
          "indexed": false,
          "internalType": "uint256[]",
          "name": "ids",
          "type": "uint256[]"
        },
        {
          "indexed": false,
          "internalType": "uint256[]",
          "name": "values",
          "type": "uint256[]"
        }
      ],
      "name": "TransferBatch",
      "type": "event"
    },
    {
      "anonymous": false,
      "inputs": [
        {
          "indexed": true,
          "internalType": "address",
          "name": "operator",
          "type": "address"
        },
        {
          "indexed": true,
          "internalType": "address",
          "name": "from",
          "type": "address"
        },
        {
          "indexed": true,
          "internalType": "address",
          "name": "to",
          "type": "address"
        },
        {
          "indexed": false,
          "internalType": "uint256",
          "name": "id",
          "type": "uint256"
        },
        {
          "indexed": false,
          "internalType": "uint256",
          "name": "value",
          "type": "uint256"
        }
      ],
      "name": "TransferSingle",
      "type": "event"
    },
    {
      "anonymous": false,
      "inputs": [
        {
          "indexed": false,
          "internalType": "string",
          "name": "value",
          "type": "string"
        },
        {
          "indexed": true,
          "internalType": "uint256",
          "name": "id",
          "type": "uint256"
        }
      ],
      "name": "URI",
      "type": "event"
    },
    {
      "anonymous": false,
      "inputs": [
        {
          "indexed": false,
          "internalType": "address",
          "name": "account",
          "type": "address"
        }
      ],
      "name": "Unpaused",
      "type": "event"
    },
    {
      "inputs": [
        {
          "internalType": "address",
          "name": "account",
          "type": "address"
        },
        {
          "internalType": "uint256",
          "name": "id",
          "type": "uint256"
        }
      ],
      "name": "balanceOf",
      "outputs": [
        {
          "internalType": "uint256",
          "name": "",
          "type": "uint256"
        }
      ],
      "stateMutability": "view",
      "type": "function"
    },
    {
      "inputs": [
        {
          "internalType": "address[]",
          "name": "accounts",
          "type": "address[]"
        },
        {
          "internalType": "uint256[]",
          "name": "ids",
          "type": "uint256[]"
        }
      ],
      "name": "balanceOfBatch",
      "outputs": [
        {
          "internalType": "uint256[]",
          "name": "",
          "type": "uint256[]"
        }
      ],
      "stateMutability": "view",
      "type": "function"
    },
    {
      "inputs": [
        {
          "internalType": "address",
          "name": "account",
          "type": "address"
        },
        {
          "internalType": "uint256",
          "name": "id",
          "type": "uint256"
        },
        {
          "internalType": "uint256",
          "name": "value",
          "type": "uint256"
        }
      ],
      "name": "burn",
      "outputs": [],
      "stateMutability": "nonpayable",
      "type": "function"
    },
    {
      "inputs": [
        {
          "internalType": "address",
          "name": "account",
          "type": "address"
        },
        {
          "internalType": "uint256[]",
          "name": "ids",
          "type": "uint256[]"
        },
        {
          "internalType": "uint256[]",
          "name": "values",
          "type": "uint256[]"
        }
      ],
      "name": "burnBatch",
      "outputs": [],
      "stateMutability": "nonpayable",
      "type": "function"
    },
    {
      "inputs": [],
      "name": "burnable",
      "outputs": [
        {
          "internalType": "bool",
          "name": "",
          "type": "bool"
        }
      ],
      "stateMutability": "view",
      "type": "function"
    },
    {
      "inputs": [
        {
          "internalType": "uint256",
          "name": "id",
          "type": "uint256"
        }
      ],
      "name": "exists",
      "outputs": [
        {
          "internalType": "bool",
          "name": "",
          "type": "bool"
        }
      ],
      "stateMutability": "view",
      "type": "function"
    },
    {
      "inputs": [
        {
          "internalType": "address",
          "name": "account",
          "type": "address"
        },
        {
          "internalType": "address",
          "name": "operator",
          "type": "address"
        }
      ],
      "name": "isApprovedForAll",
      "outputs": [
        {
          "internalType": "bool",
          "name": "",
          "type": "bool"
        }
      ],
      "stateMutability": "view",
      "type": "function"
    },
    {
      "inputs": [],
      "name": "maxSupplyPerToken",
      "outputs": [
        {
          "internalType": "uint256",
          "name": "",
          "type": "uint256"
        }
      ],
      "stateMutability": "view",
      "type": "function"
    },
    {
      "inputs": [
        {
          "internalType": "address",
          "name": "to",
          "type": "address"
        },
        {
          "internalType": "uint256",
          "name": "tokenId",
          "type": "uint256"
        },
        {
          "internalType": "uint256",
          "name": "amount",
          "type": "uint256"
        },
        {
          "internalType": "bytes",
          "name": "data",
          "type": "bytes"
        }
      ],
      "name": "mint",
      "outputs": [],
      "stateMutability": "nonpayable",
      "type": "function"
    },
    {
      "inputs": [],
      "name": "mintAccessMode",
      "outputs": [
        {
          "internalType": "enum ConfigurableERC1155.MintAccessMode",
          "name": "",
          "type": "uint8"
        }
      ],
      "stateMutability": "view",
      "type": "function"
    },
    {
      "inputs": [
        {
          "internalType": "address",
          "name": "to",
          "type": "address"
        },
        {
          "internalType": "uint256[]",
          "name": "tokenIds",
          "type": "uint256[]"
        },
        {
          "internalType": "uint256[]",
          "name": "amounts",
          "type": "uint256[]"
        },
        {
          "internalType": "bytes",
          "name": "data",
          "type": "bytes"
        }
      ],
      "name": "mintBatch",
      "outputs": [],
      "stateMutability": "nonpayable",
      "type": "function"
    },
    {
      "inputs": [],
      "name": "mintable",
      "outputs": [
        {
          "internalType": "bool",
          "name": "",
          "type": "bool"
        }
      ],
      "stateMutability": "view",
      "type": "function"
    },
    {
      "inputs": [],
      "name": "name",
      "outputs": [
        {
          "internalType": "string",
          "name": "",
          "type": "string"
        }
      ],
      "stateMutability": "view",
      "type": "function"
    },
    {
      "inputs": [],
      "name": "owner",
      "outputs": [
        {
          "internalType": "address",
          "name": "",
          "type": "address"
        }
      ],
      "stateMutability": "view",
      "type": "function"
    },
    {
      "inputs": [],
      "name": "pausable",
      "outputs": [
        {
          "internalType": "bool",
          "name": "",
          "type": "bool"
        }
      ],
      "stateMutability": "view",
      "type": "function"
    },
    {
      "inputs": [],
      "name": "pause",
      "outputs": [],
      "stateMutability": "nonpayable",
      "type": "function"
    },
    {
      "inputs": [],
      "name": "paused",
      "outputs": [
        {
          "internalType": "bool",
          "name": "",
          "type": "bool"
        }
      ],
      "stateMutability": "view",
      "type": "function"
    },
    {
      "inputs": [],
      "name": "renounceOwnership",
      "outputs": [],
      "stateMutability": "nonpayable",
      "type": "function"
    },
    {
      "inputs": [
        {
          "internalType": "address",
          "name": "from",
          "type": "address"
        },
        {
          "internalType": "address",
          "name": "to",
          "type": "address"
        },
        {
          "internalType": "uint256[]",
          "name": "ids",
          "type": "uint256[]"
        },
        {
          "internalType": "uint256[]",
          "name": "values",
          "type": "uint256[]"
        },
        {
          "internalType": "bytes",
          "name": "data",
          "type": "bytes"
        }
      ],
      "name": "safeBatchTransferFrom",
      "outputs": [],
      "stateMutability": "nonpayable",
      "type": "function"
    },
    {
      "inputs": [
        {
          "internalType": "address",
          "name": "from",
          "type": "address"
        },
        {
          "internalType": "address",
          "name": "to",
          "type": "address"
        },
        {
          "internalType": "uint256",
          "name": "id",
          "type": "uint256"
        },
        {
          "internalType": "uint256",
          "name": "value",
          "type": "uint256"
        },
        {
          "internalType": "bytes",
          "name": "data",
          "type": "bytes"
        }
      ],
      "name": "safeTransferFrom",
      "outputs": [],
      "stateMutability": "nonpayable",
      "type": "function"
    },
    {
      "inputs": [
        {
          "internalType": "address",
          "name": "operator",
          "type": "address"
        },
        {
          "internalType": "bool",
          "name": "approved",
          "type": "bool"
        }
      ],
      "name": "setApprovalForAll",
      "outputs": [],
      "stateMutability": "nonpayable",
      "type": "function"
    },
    {
      "inputs": [
        {
          "internalType": "uint256",
          "name": "tokenId",
          "type": "uint256"
        },
        {
          "internalType": "uint256",
          "name": "maxSupply",
          "type": "uint256"
        }
      ],
      "name": "setTokenMaxSupply",
      "outputs": [],
      "stateMutability": "nonpayable",
      "type": "function"
    },
    {
      "inputs": [
        {
          "internalType": "string",
          "name": "newuri",
          "type": "string"
        }
      ],
      "name": "setURI",
      "outputs": [],
      "stateMutability": "nonpayable",
      "type": "function"
    },
    {
      "inputs": [
        {
          "internalType": "bytes4",
          "name": "interfaceId",
          "type": "bytes4"
        }
      ],
      "name": "supportsInterface",
      "outputs": [
        {
          "internalType": "bool",
          "name": "",
          "type": "bool"
        }
      ],
      "stateMutability": "view",
      "type": "function"
    },
    {
      "inputs": [
        {
          "internalType": "uint256",
          "name": "",
          "type": "uint256"
        }
      ],
      "name": "tokenMaxSupply",
      "outputs": [
        {
          "internalType": "uint256",
          "name": "",
          "type": "uint256"
        }
      ],
      "stateMutability": "view",
      "type": "function"
    },
    {
      "inputs": [],
      "name": "totalSupply",
      "outputs": [
        {
          "internalType": "uint256",
          "name": "",
          "type": "uint256"
        }
      ],
      "stateMutability": "view",
      "type": "function"
    },
    {
      "inputs": [
        {
          "internalType": "uint256",
          "name": "id",
          "type": "uint256"
        }
      ],
      "name": "totalSupply",
      "outputs": [
        {
          "internalType": "uint256",
          "name": "",
          "type": "uint256"
        }
      ],
      "stateMutability": "view",
      "type": "function"
    },
    {
      "inputs": [
        {
          "internalType": "address",
          "name": "newOwner",
          "type": "address"
        }
      ],
      "name": "transferOwnership",
      "outputs": [],
      "stateMutability": "nonpayable",
      "type": "function"
    },
    {
      "inputs": [],
      "name": "unpause",
      "outputs": [],
      "stateMutability": "nonpayable",
      "type": "function"
    },
    {
      "inputs": [
        {
          "internalType": "uint256",
          "name": "",
          "type": "uint256"
        }
      ],
      "name": "uri",
      "outputs": [
        {
          "internalType": "string",
          "name": "",
          "type": "string"
        }
      ],
      "stateMutability": "view",
      "type": "function"
    },
    {
      "inputs": [
        {
          "internalType": "address",
          "name": "",
          "type": "address"
        }
      ],
      "name": "walletMintCount",
      "outputs": [
        {
          "internalType": "uint256",
          "name": "",
          "type": "uint256"
        }
      ],
      "stateMutability": "view",
      "type": "function"
    },
    {
      "inputs": [],
      "name": "walletMintLimit",
      "outputs": [
        {
          "internalType": "uint256",
          "name": "",
          "type": "uint256"
        }
      ],
      "stateMutability": "view",
      "type": "function"
    }
  ],
  "bytecode": "0x6101406040523480156200001257600080fd5b5060405162002a7c38038062002a7c833981016040819052620000359162000236565b86886200004281620000e7565b506001600160a01b0381166200007257604051631e4fbdf760e01b81526000600482015260240160405180910390fd5b6200007d81620000f9565b5060086200008c8a82620003af565b5085151560805284151560a05283151560c052826002811115620000b457620000b46200047b565b60e0816002811115620000cb57620000cb6200047b565b9052506101009190915261012052506200049195505050505050565b6002620000f58282620003af565b5050565b600380546001600160a01b038381166001600160a01b0319831681179093556040519116919082907f8be0079c531659141344cd1fd0a4f28419497f9722a3daafe3b4186f6b6457e090600090a35050565b634e487b7160e01b600052604160045260246000fd5b600082601f8301126200017357600080fd5b81516001600160401b03808211156200019057620001906200014b565b604051601f8301601f19908116603f01168101908282118183101715620001bb57620001bb6200014b565b81604052838152602092508683858801011115620001d857600080fd5b600091505b83821015620001fc5785820183015181830184015290820190620001dd565b600093810190920192909252949350505050565b805180151581146200022157600080fd5b919050565b8051600381106200022157600080fd5b60008060008060008060008060006101208a8c0312156200025657600080fd5b89516001600160401b03808211156200026e57600080fd5b6200027c8d838e0162000161565b9a5060208c01519150808211156200029357600080fd5b50620002a28c828d0162000161565b60408c015190995090506001600160a01b0381168114620002c257600080fd5b9650620002d260608b0162000210565b9550620002e260808b0162000210565b9450620002f260a08b0162000210565b93506200030260c08b0162000226565b925060e08a015191506101008a015190509295985092959850929598565b600181811c908216806200033557607f821691505b6020821081036200035657634e487b7160e01b600052602260045260246000fd5b50919050565b601f821115620003aa57600081815260208120601f850160051c81016020861015620003855750805b601f850160051c820191505b81811015620003a65782815560010162000391565b5050505b505050565b81516001600160401b03811115620003cb57620003cb6200014b565b620003e381620003dc845462000320565b846200035c565b602080601f8311600181146200041b5760008415620004025750858301515b600019600386901b1c1916600185901b178555620003a6565b600085815260208120601f198616915b828110156200044c578886015182559484019460019091019084016200042b565b50858210156200046b5787850151600019600388901b60f8161c191681555b5050505050600190811b01905550565b634e487b7160e01b600052602160045260246000fd5b60805160a05160c05160e051610100516101205161252b62000551600039600081816102f3015281816108760152818161089c01528181610d960152610dbc0152600081816103cb015281816108280152610d560152600081816104a20152818161070d0152818161077601528181610c820152610ceb0152600081816102cc01528181610ac50152610ed401526000818161043501528181610be20152611085015260008181610322015281816106cd0152610c42015261252b6000f3fe608060405234801561001057600080fd5b50600436106101ee5760003560e01c80636b20c4541161010f578063a22cb465116100a2578063e985e9c511610071578063e985e9c5146104d1578063f242432a146104e4578063f2fde38b146104f7578063f5298aca1461050a57600080fd5b8063a22cb46514610457578063b6ea46711461046a578063bd85b0391461047d578063ddb132f11461049d57600080fd5b80638456cb59116100de5780638456cb59146103ed5780638da5cb5b146103f557806393ecb0c614610410578063a07c7ce41461043057600080fd5b80636b20c45414610398578063715018a6146103ab578063731133e9146103b357806374c28561146103c657600080fd5b80632eb2c2d6116101875780634bf365df116101565780634bf365df1461031d5780634e1273f4146103445780634f558e79146103645780635c975abb1461038657600080fd5b80632eb2c2d6146102b457806336775847146102c75780633937b5b4146102ee5780633f4ba83a1461031557600080fd5b806306fdde03116101c357806306fdde03146102715780630e89341c1461028657806318160ddd146102995780631f7fdffa146102a157600080fd5b80624221f0146101f3578062fdd58e1461022657806301ffc9a71461023957806302fe53051461025c575b600080fd5b610213610201366004611b42565b60076020526000908152604090205481565b6040519081526020015b60405180910390f35b610213610234366004611b77565b61051d565b61024c610247366004611bb7565b610545565b604051901515815260200161021d565b61026f61026a366004611c7a565b610595565b005b6102796105a9565b60405161021d9190611d11565b610279610294366004611b42565b610637565b600554610213565b61026f6102af366004611dd3565b6106cb565b61026f6102c2366004611e6c565b610a4f565b61024c7f000000000000000000000000000000000000000000000000000000000000000081565b6102137f000000000000000000000000000000000000000000000000000000000000000081565b61026f610abb565b61024c7f000000000000000000000000000000000000000000000000000000000000000081565b610357610352366004611f16565b610b0b565b60405161021d9190612011565b61024c610372366004611b42565b600090815260046020526040902054151590565b600354600160a01b900460ff1661024c565b61026f6103a6366004612024565b610be0565b61026f610c2e565b61026f6103c1366004612098565b610c40565b6102137f000000000000000000000000000000000000000000000000000000000000000081565b61026f610eca565b6003546040516001600160a01b03909116815260200161021d565b61021361041e3660046120ed565b60066020526000908152604090205481565b61024c7f000000000000000000000000000000000000000000000000000000000000000081565b61026f610465366004612108565b610f18565b61026f610478366004612144565b610f27565b61021361048b366004611b42565b60009081526004602052604090205490565b6104c47f000000000000000000000000000000000000000000000000000000000000000081565b60405161021d919061217c565b61024c6104df3660046121a4565b610fbb565b61026f6104f23660046121d7565b610fe9565b61026f6105053660046120ed565b611048565b61026f61051836600461223c565b611083565b6000818152602081815260408083206001600160a01b03861684529091529020545b92915050565b60006001600160e01b03198216636cdb3d1360e11b148061057657506001600160e01b031982166303a24d0760e21b145b8061053f57506301ffc9a760e01b6001600160e01b031983161461053f565b61059d6110cc565b6105a6816110f9565b50565b600880546105b69061226f565b80601f01602080910402602001604051908101604052809291908181526020018280546105e29061226f565b801561062f5780601f106106045761010080835404028352916020019161062f565b820191906000526020600020905b81548152906001019060200180831161061257829003601f168201915b505050505081565b6060600280546106469061226f565b80601f01602080910402602001604051908101604052809291908181526020018280546106729061226f565b80156106bf5780601f10610694576101008083540402835291602001916106bf565b820191906000526020600020905b8154815290600101906020018083116106a257829003601f168201915b50505050509050919050565b7f00000000000000000000000000000000000000000000000000000000000000006107095760405163af79b43760e01b815260040160405180910390fd5b60007f0000000000000000000000000000000000000000000000000000000000000000600281111561073d5761073d612166565b03610772576003546001600160a01b0316331461076d5760405163955c501b60e01b815260040160405180910390fd5b610868565b60027f000000000000000000000000000000000000000000000000000000000000000060028111156107a6576107a6612166565b03610868576000805b83518110156107f1578381815181106107ca576107ca6122a9565b6020026020010151826107dd91906122d5565b9150806107e9816122e8565b9150506107af565b5033600090815260066020526040812080548392906108119084906122d5565b9091555050336000908152600660205260409020547f000000000000000000000000000000000000000000000000000000000000000010156108665760405163746f460760e01b815260040160405180910390fd5b505b60005b83518110156109f9577f00000000000000000000000000000000000000000000000000000000000000001561092d577f00000000000000000000000000000000000000000000000000000000000000008382815181106108cd576108cd6122a9565b60200260200101516109048684815181106108ea576108ea6122a9565b602002602001015160009081526004602052604090205490565b61090e91906122d5565b111561092d57604051638a164f6360e01b815260040160405180910390fd5b600060076000868481518110610945576109456122a9565b602002602001015181526020019081526020016000205411156109e75760076000858381518110610978576109786122a9565b60200260200101518152602001908152602001600020548382815181106109a1576109a16122a9565b60200260200101516109be8684815181106108ea576108ea6122a9565b6109c891906122d5565b11156109e757604051638a164f6360e01b815260040160405180910390fd5b806109f1816122e8565b91505061086b565b50610a0684848484611105565b836001600160a01b03167f975b10251631af0537a231daef9c6280fe469de096617cf778249f61cb60886e8484604051610a41929190612301565b60405180910390a250505050565b336001600160a01b0386168114801590610a705750610a6e8682610fbb565b155b15610aa65760405163711bec9160e11b81526001600160a01b038083166004830152871660248201526044015b60405180910390fd5b610ab38686868686611143565b505050505050565b610ac36110cc565b7f0000000000000000000000000000000000000000000000000000000000000000610b0157604051631135a75960e21b815260040160405180910390fd5b610b096111aa565b565b60608151835114610b3c5781518351604051635b05999160e01b815260048101929092526024820152604401610a9d565b6000835167ffffffffffffffff811115610b5857610b58611bdb565b604051908082528060200260200182016040528015610b81578160200160208202803683370190505b50905060005b8451811015610bd857602080820286010151610bab9060208084028701015161051d565b828281518110610bbd57610bbd6122a9565b6020908102919091010152610bd1816122e8565b9050610b87565b509392505050565b7f0000000000000000000000000000000000000000000000000000000000000000610c1e57604051634dee6bd960e11b815260040160405180910390fd5b610c298383836111ff565b505050565b610c366110cc565b610b09600061125e565b7f0000000000000000000000000000000000000000000000000000000000000000610c7e5760405163af79b43760e01b815260040160405180910390fd5b60007f00000000000000000000000000000000000000000000000000000000000000006002811115610cb257610cb2612166565b03610ce7576003546001600160a01b03163314610ce25760405163955c501b60e01b815260040160405180910390fd5b610d94565b60027f00000000000000000000000000000000000000000000000000000000000000006002811115610d1b57610d1b612166565b03610d94573360009081526006602052604081208054849290610d3f9084906122d5565b9091555050336000908152600660205260409020547f00000000000000000000000000000000000000000000000000000000000000001015610d945760405163746f460760e01b815260040160405180910390fd5b7f000000000000000000000000000000000000000000000000000000000000000015610e1b577f000000000000000000000000000000000000000000000000000000000000000082610df28560009081526004602052604090205490565b610dfc91906122d5565b1115610e1b57604051638a164f6360e01b815260040160405180910390fd5b60008381526007602052604090205415610e7457600083815260076020908152604080832054600490925290912054610e559084906122d5565b1115610e7457604051638a164f6360e01b815260040160405180910390fd5b610e80848484846112b0565b82846001600160a01b03167f96234cb3d6c373a1aaa06497a540bc166d4b0359243a088eaf95e21d7253d0be84604051610ebc91815260200190565b60405180910390a350505050565b610ed26110cc565b7f0000000000000000000000000000000000000000000000000000000000000000610f1057604051631135a75960e21b815260040160405180910390fd5b610b0961130d565b610f23338383611350565b5050565b610f2f6110cc565b600081118015610f4c575060008281526004602052604090205481105b15610f6a57604051638a164f6360e01b815260040160405180910390fd5b600082815260076020526040908190208290555182907f5af22a09e6677efe5d29d19bf6a17f71d28caad7707022d8eab337320df9f50d90610faf9084815260200190565b60405180910390a25050565b6001600160a01b03918216600090815260016020908152604080832093909416825291909152205460ff1690565b336001600160a01b038616811480159061100a57506110088682610fbb565b155b1561103b5760405163711bec9160e11b81526001600160a01b03808316600483015287166024820152604401610a9d565b610ab386868686866113e6565b6110506110cc565b6001600160a01b03811661107a57604051631e4fbdf760e01b815260006004820152602401610a9d565b6105a68161125e565b7f00000000000000000000000000000000000000000000000000000000000000006110c157604051634dee6bd960e11b815260040160405180910390fd5b610c29838383611474565b6003546001600160a01b03163314610b095760405163118cdaa760e01b8152336004820152602401610a9d565b6002610f238282612375565b6001600160a01b03841661112f57604051632bfa23e760e11b815260006004820152602401610a9d565b61113d6000858585856114aa565b50505050565b6001600160a01b03841661116d57604051632bfa23e760e11b815260006004820152602401610a9d565b6001600160a01b03851661119657604051626a0d4560e21b815260006004820152602401610a9d565b6111a385858585856114aa565b5050505050565b6111b26114fd565b6003805460ff60a01b191690557f5db9ee0a495bf2e6ff9c91a7834c1ba4fdd244a5e8aa4e537bd38aeae4b073aa335b6040516001600160a01b03909116815260200160405180910390a1565b6001600160a01b038316331480159061121f575061121d8333610fbb565b155b1561125357335b60405163711bec9160e11b81526001600160a01b0391821660048201529084166024820152604401610a9d565b610c29838383611527565b600380546001600160a01b038381166001600160a01b0319831681179093556040519116919082907f8be0079c531659141344cd1fd0a4f28419497f9722a3daafe3b4186f6b6457e090600090a35050565b6001600160a01b0384166112da57604051632bfa23e760e11b815260006004820152602401610a9d565b60408051600180825260208201869052818301908152606082018590526080820190925290610ab36000878484876114aa565b61131561156d565b6003805460ff60a01b1916600160a01b1790557f62e78cea01bee320cd4e420270b5ea74000d11b0c9f74754ebdbfc544b05a2586111e23390565b6001600160a01b0382166113795760405162ced3e160e81b815260006004820152602401610a9d565b6001600160a01b03838116600081815260016020908152604080832094871680845294825291829020805460ff191686151590811790915591519182527f17307eab39ab6107e8899845ad3d59bd9653f200f220920489ca2b5937696c31910160405180910390a3505050565b6001600160a01b03841661141057604051632bfa23e760e11b815260006004820152602401610a9d565b6001600160a01b03851661143957604051626a0d4560e21b815260006004820152602401610a9d565b6040805160018082526020820186905281830190815260608201859052608082019092529061146b87878484876114aa565b50505050505050565b6001600160a01b038316331480159061149457506114928333610fbb565b155b1561149f5733611226565b610c29838383611598565b6114b685858585611600565b6001600160a01b038416156111a357825133906001036114ef57602084810151908401516114e883898985858961160c565b5050610ab3565b610ab3818787878787611730565b600354600160a01b900460ff16610b0957604051638dfc202b60e01b815260040160405180910390fd5b6001600160a01b03831661155057604051626a0d4560e21b815260006004820152602401610a9d565b610c298360008484604051806020016040528060008152506114aa565b600354600160a01b900460ff1615610b095760405163d93c066560e01b815260040160405180910390fd5b6001600160a01b0383166115c157604051626a0d4560e21b815260006004820152602401610a9d565b604080516001808252602082018590528183019081526060820184905260a082019092526000608082018181529192916111a3918791859085906114aa565b61113d84848484611819565b6001600160a01b0384163b15610ab35760405163f23a6e6160e01b81526001600160a01b0385169063f23a6e61906116509089908990889088908890600401612435565b6020604051808303816000875af192505050801561168b575060408051601f3d908101601f191682019092526116889181019061247a565b60015b6116f4573d8080156116b9576040519150601f19603f3d011682016040523d82523d6000602084013e6116be565b606091505b5080516000036116ec57604051632bfa23e760e11b81526001600160a01b0386166004820152602401610a9d565b805160208201fd5b6001600160e01b0319811663f23a6e6160e01b1461146b57604051632bfa23e760e11b81526001600160a01b0386166004820152602401610a9d565b6001600160a01b0384163b15610ab35760405163bc197c8160e01b81526001600160a01b0385169063bc197c81906117749089908990889088908890600401612497565b6020604051808303816000875af19250505080156117af575060408051601f3d908101601f191682019092526117ac9181019061247a565b60015b6117dd573d8080156116b9576040519150601f19603f3d011682016040523d82523d6000602084013e6116be565b6001600160e01b0319811663bc197c8160e01b1461146b57604051632bfa23e760e11b81526001600160a01b0386166004820152602401610a9d565b61182584848484611916565b6001600160a01b0384166118ae576000805b835181101561189457602081810284810182015190860182015160009081526004909252604082208054919283926118709084906122d5565b90915550611880905081846122d5565b9250508061188d906122e8565b9050611837565b5080600560008282546118a791906122d5565b9091555050505b6001600160a01b03831661113d576000805b83518110156119055760208181028481018201519086018201516000908152600490925260409091208054829003905591909101906118fe816122e8565b90506118c0565b506005805491909103905550505050565b61191e61156d565b61113d8484848480518251146119545781518151604051635b05999160e01b815260048101929092526024820152604401610a9d565b3360005b8351811015611a63576020818102858101820151908501909101516001600160a01b03881615611a0b576000828152602081815260408083206001600160a01b038c168452909152902054818110156119e4576040516303dee4c560e01b81526001600160a01b038a166004820152602481018290526044810183905260648101849052608401610a9d565b6000838152602081815260408083206001600160a01b038d16845290915290209082900390555b6001600160a01b03871615611a50576000828152602081815260408083206001600160a01b038b16845290915281208054839290611a4a9084906122d5565b90915550505b505080611a5c906122e8565b9050611958565b508251600103611ae45760208301516000906020840151909150856001600160a01b0316876001600160a01b0316846001600160a01b03167fc3d58168c5ae7397731d063d5bbf3d657854427343f4c083240f7aacaa2d0f628585604051611ad5929190918252602082015260400190565b60405180910390a450506111a3565b836001600160a01b0316856001600160a01b0316826001600160a01b03167f4a39dc06d4c0dbc64b70af90fd698a233a518aa5d07e595d983b8c0526c8f7fb8686604051611b33929190612301565b60405180910390a45050505050565b600060208284031215611b5457600080fd5b5035919050565b80356001600160a01b0381168114611b7257600080fd5b919050565b60008060408385031215611b8a57600080fd5b611b9383611b5b565b946020939093013593505050565b6001600160e01b0319811681146105a657600080fd5b600060208284031215611bc957600080fd5b8135611bd481611ba1565b9392505050565b634e487b7160e01b600052604160045260246000fd5b604051601f8201601f1916810167ffffffffffffffff81118282101715611c1a57611c1a611bdb565b604052919050565b600067ffffffffffffffff831115611c3c57611c3c611bdb565b611c4f601f8401601f1916602001611bf1565b9050828152838383011115611c6357600080fd5b828260208301376000602084830101529392505050565b600060208284031215611c8c57600080fd5b813567ffffffffffffffff811115611ca357600080fd5b8201601f81018413611cb457600080fd5b611cc384823560208401611c22565b949350505050565b6000815180845260005b81811015611cf157602081850181015186830182015201611cd5565b506000602082860101526020601f19601f83011685010191505092915050565b602081526000611bd46020830184611ccb565b600067ffffffffffffffff821115611d3e57611d3e611bdb565b5060051b60200190565b600082601f830112611d5957600080fd5b81356020611d6e611d6983611d24565b611bf1565b82815260059290921b84018101918181019086841115611d8d57600080fd5b8286015b84811015611da85780358352918301918301611d91565b509695505050505050565b600082601f830112611dc457600080fd5b611bd483833560208501611c22565b60008060008060808587031215611de957600080fd5b611df285611b5b565b9350602085013567ffffffffffffffff80821115611e0f57600080fd5b611e1b88838901611d48565b94506040870135915080821115611e3157600080fd5b611e3d88838901611d48565b93506060870135915080821115611e5357600080fd5b50611e6087828801611db3565b91505092959194509250565b600080600080600060a08688031215611e8457600080fd5b611e8d86611b5b565b9450611e9b60208701611b5b565b9350604086013567ffffffffffffffff80821115611eb857600080fd5b611ec489838a01611d48565b94506060880135915080821115611eda57600080fd5b611ee689838a01611d48565b93506080880135915080821115611efc57600080fd5b50611f0988828901611db3565b9150509295509295909350565b60008060408385031215611f2957600080fd5b823567ffffffffffffffff80821115611f4157600080fd5b818501915085601f830112611f5557600080fd5b81356020611f65611d6983611d24565b82815260059290921b84018101918181019089841115611f8457600080fd5b948201945b83861015611fa957611f9a86611b5b565b82529482019490820190611f89565b96505086013592505080821115611fbf57600080fd5b50611fcc85828601611d48565b9150509250929050565b600081518084526020808501945080840160005b8381101561200657815187529582019590820190600101611fea565b509495945050505050565b602081526000611bd46020830184611fd6565b60008060006060848603121561203957600080fd5b61204284611b5b565b9250602084013567ffffffffffffffff8082111561205f57600080fd5b61206b87838801611d48565b9350604086013591508082111561208157600080fd5b5061208e86828701611d48565b9150509250925092565b600080600080608085870312156120ae57600080fd5b6120b785611b5b565b93506020850135925060408501359150606085013567ffffffffffffffff8111156120e157600080fd5b611e6087828801611db3565b6000602082840312156120ff57600080fd5b611bd482611b5b565b6000806040838503121561211b57600080fd5b61212483611b5b565b91506020830135801515811461213957600080fd5b809150509250929050565b6000806040838503121561215757600080fd5b50508035926020909101359150565b634e487b7160e01b600052602160045260246000fd5b602081016003831061219e57634e487b7160e01b600052602160045260246000fd5b91905290565b600080604083850312156121b757600080fd5b6121c083611b5b565b91506121ce60208401611b5b565b90509250929050565b600080600080600060a086880312156121ef57600080fd5b6121f886611b5b565b945061220660208701611b5b565b93506040860135925060608601359150608086013567ffffffffffffffff81111561223057600080fd5b611f0988828901611db3565b60008060006060848603121561225157600080fd5b61225a84611b5b565b95602085013595506040909401359392505050565b600181811c9082168061228357607f821691505b6020821081036122a357634e487b7160e01b600052602260045260246000fd5b50919050565b634e487b7160e01b600052603260045260246000fd5b634e487b7160e01b600052601160045260246000fd5b8082018082111561053f5761053f6122bf565b6000600182016122fa576122fa6122bf565b5060010190565b6040815260006123146040830185611fd6565b82810360208401526123268185611fd6565b95945050505050565b601f821115610c2957600081815260208120601f850160051c810160208610156123565750805b601f850160051c820191505b81811015610ab357828155600101612362565b815167ffffffffffffffff81111561238f5761238f611bdb565b6123a38161239d845461226f565b8461232f565b602080601f8311600181146123d857600084156123c05750858301515b600019600386901b1c1916600185901b178555610ab3565b600085815260208120601f198616915b82811015612407578886015182559484019460019091019084016123e8565b50858210156124255787850151600019600388901b60f8161c191681555b5050505050600190811b01905550565b6001600160a01b03868116825285166020820152604081018490526060810183905260a06080820181905260009061246f90830184611ccb565b979650505050505050565b60006020828403121561248c57600080fd5b8151611bd481611ba1565b6001600160a01b0386811682528516602082015260a0604082018190526000906124c390830186611fd6565b82810360608401526124d58186611fd6565b905082810360808401526124e98185611ccb565b9897505050505050505056fea26469706673582212207cee7a59df5cafb136fed95b5d2292915a4052a1bba46bc2bef5aedf2e5f838e64736f6c63430008140033",
  "linkReferences": {},
  "deployedLinkReferences": {}
}